{
  "abi": [
    {
      "inputs": [
        {
          "internalType": "contract IVotes",
          "name": "_token",
          "type": "address"
        },
        {
          "internalType": "contract TimelockController",
          "name": "_timelock",
          "type": "address"
        },
        {
          "components": [
            {
              "internalType": "bytes32",
              "name": "contractAddress",
              "type": "bytes32"
            },
            {
              "internalType": "uint16",
              "name": "chainId",
              "type": "uint16"
            }
          ],
          "internalType": "struct CrossChainGovernorCountingSimple.CrossChainAddress[]",
          "name": "_spokeContracts",
          "type": "tuple[]"
        },
        {
          "internalType": "uint16",
          "name": "_chainId",
          "type": "uint16"
        },
        {
          "internalType": "address",
          "name": "_wormholeRelayerAddress",
          "type": "address"
        },
        {
          "internalType": "address",
          "name": "_magistrateAddress",
          "type": "address"
        }
      ],
      "stateMutability": "nonpayable",
      "type": "constructor"
    },
    {
      "inputs": [],
      "name": "Empty",
      "type": "error"
    },
    {
      "anonymous": false,
      "inputs": [
        {
          "indexed": true,
          "internalType": "address",
          "name": "previousMagistrate",
          "type": "address"
        },
        {
          "indexed": true,
          "internalType": "address",
          "name": "newMagistrate",
          "type": "address"
        }
      ],
      "name": "MagistrateChanged",
      "type": "event"
    },
    {
      "anonymous": false,
      "inputs": [
        {
          "indexed": true,
          "internalType": "address",
          "name": "previousOwner",
          "type": "address"
        },
        {
          "indexed": true,
          "internalType": "address",
          "name": "newOwner",
          "type": "address"
        }
      ],
      "name": "OwnershipTransferred",
      "type": "event"
    },
    {
      "anonymous": false,
      "inputs": [
        {
          "indexed": false,
          "internalType": "uint256",
          "name": "proposalId",
          "type": "uint256"
        }
      ],
      "name": "ProposalCanceled",
      "type": "event"
    },
    {
      "anonymous": false,
      "inputs": [
        {
          "indexed": false,
          "internalType": "uint256",
          "name": "proposalId",
          "type": "uint256"
        },
        {
          "indexed": false,
          "internalType": "address",
          "name": "proposer",
          "type": "address"
        },
        {
          "indexed": false,
          "internalType": "address[]",
          "name": "targets",
          "type": "address[]"
        },
        {
          "indexed": false,
          "internalType": "uint256[]",
          "name": "values",
          "type": "uint256[]"
        },
        {
          "indexed": false,
          "internalType": "string[]",
          "name": "signatures",
          "type": "string[]"
        },
        {
          "indexed": false,
          "internalType": "bytes[]",
          "name": "calldatas",
          "type": "bytes[]"
        },
        {
          "indexed": false,
          "internalType": "uint256",
          "name": "startBlock",
          "type": "uint256"
        },
        {
          "indexed": false,
          "internalType": "uint256",
          "name": "endBlock",
          "type": "uint256"
        },
        {
          "indexed": false,
          "internalType": "string",
          "name": "description",
          "type": "string"
        }
      ],
      "name": "ProposalCreated",
      "type": "event"
    },
    {
      "anonymous": false,
      "inputs": [
        {
          "indexed": false,
          "internalType": "uint256",
          "name": "proposalId",
          "type": "uint256"
        }
      ],
      "name": "ProposalExecuted",
      "type": "event"
    },
    {
      "anonymous": false,
      "inputs": [
        {
          "indexed": false,
          "internalType": "uint256",
          "name": "proposalId",
          "type": "uint256"
        },
        {
          "indexed": false,
          "internalType": "uint256",
          "name": "eta",
          "type": "uint256"
        }
      ],
      "name": "ProposalQueued",
      "type": "event"
    },
    {
      "anonymous": false,
      "inputs": [
        {
          "indexed": false,
          "internalType": "uint256",
          "name": "oldProposalThreshold",
          "type": "uint256"
        },
        {
          "indexed": false,
          "internalType": "uint256",
          "name": "newProposalThreshold",
          "type": "uint256"
        }
      ],
      "name": "ProposalThresholdSet",
      "type": "event"
    },
    {
      "anonymous": false,
      "inputs": [
        {
          "indexed": false,
          "internalType": "uint256",
          "name": "oldQuorumNumerator",
          "type": "uint256"
        },
        {
          "indexed": false,
          "internalType": "uint256",
          "name": "newQuorumNumerator",
          "type": "uint256"
        }
      ],
      "name": "QuorumNumeratorUpdated",
      "type": "event"
    },
    {
      "anonymous": false,
      "inputs": [
        {
          "components": [
            {
              "internalType": "bytes32",
              "name": "contractAddress",
              "type": "bytes32"
            },
            {
              "internalType": "uint16",
              "name": "chainId",
              "type": "uint16"
            }
          ],
          "indexed": true,
          "internalType": "struct CrossChainGovernorCountingSimple.CrossChainAddress[]",
          "name": "spokes",
          "type": "tuple[]"
        }
      ],
      "name": "SpokesUpdated",
      "type": "event"
    },
    {
      "anonymous": false,
      "inputs": [
        {
          "indexed": false,
          "internalType": "address",
          "name": "oldTimelock",
          "type": "address"
        },
        {
          "indexed": false,
          "internalType": "address",
          "name": "newTimelock",
          "type": "address"
        }
      ],
      "name": "TimelockChange",
      "type": "event"
    },
    {
      "anonymous": false,
      "inputs": [
        {
          "indexed": true,
          "internalType": "address",
          "name": "voter",
          "type": "address"
        },
        {
          "indexed": false,
          "internalType": "uint256",
          "name": "proposalId",
          "type": "uint256"
        },
        {
          "indexed": false,
          "internalType": "uint8",
          "name": "support",
          "type": "uint8"
        },
        {
          "indexed": false,
          "internalType": "uint256",
          "name": "weight",
          "type": "uint256"
        },
        {
          "indexed": false,
          "internalType": "string",
          "name": "reason",
          "type": "string"
        }
      ],
      "name": "VoteCast",
      "type": "event"
    },
    {
      "anonymous": false,
      "inputs": [
        {
          "indexed": true,
          "internalType": "address",
          "name": "voter",
          "type": "address"
        },
        {
          "indexed": false,
          "internalType": "uint256",
          "name": "proposalId",
          "type": "uint256"
        },
        {
          "indexed": false,
          "internalType": "uint8",
          "name": "support",
          "type": "uint8"
        },
        {
          "indexed": false,
          "internalType": "uint256",
          "name": "weight",
          "type": "uint256"
        },
        {
          "indexed": false,
          "internalType": "string",
          "name": "reason",
          "type": "string"
        },
        {
          "indexed": false,
          "internalType": "bytes",
          "name": "params",
          "type": "bytes"
        }
      ],
      "name": "VoteCastWithParams",
      "type": "event"
    },
    {
      "anonymous": false,
      "inputs": [
        {
          "indexed": false,
          "internalType": "uint256",
          "name": "oldVotingDelay",
          "type": "uint256"
        },
        {
          "indexed": false,
          "internalType": "uint256",
          "name": "newVotingDelay",
          "type": "uint256"
        }
      ],
      "name": "VotingDelaySet",
      "type": "event"
    },
    {
      "anonymous": false,
      "inputs": [
        {
          "indexed": false,
          "internalType": "uint256",
          "name": "oldVotingPeriod",
          "type": "uint256"
        },
        {
          "indexed": false,
          "internalType": "uint256",
          "name": "newVotingPeriod",
          "type": "uint256"
        }
      ],
      "name": "VotingPeriodSet",
      "type": "event"
    },
    {
      "inputs": [],
      "name": "BALLOT_TYPEHASH",
      "outputs": [
        {
          "internalType": "bytes32",
          "name": "",
          "type": "bytes32"
        }
      ],
      "stateMutability": "view",
      "type": "function"
    },
    {
      "inputs": [],
      "name": "COUNTING_MODE",
      "outputs": [
        {
          "internalType": "string",
          "name": "",
          "type": "string"
        }
      ],
      "stateMutability": "pure",
      "type": "function"
    },
    {
      "inputs": [],
      "name": "EXTENDED_BALLOT_TYPEHASH",
      "outputs": [
        {
          "internalType": "bytes32",
          "name": "",
          "type": "bytes32"
        }
      ],
      "stateMutability": "view",
      "type": "function"
    },
    {
      "inputs": [
        {
          "internalType": "uint256",
          "name": "proposalId",
          "type": "uint256"
        },
        {
          "internalType": "uint8",
          "name": "support",
          "type": "uint8"
        }
      ],
      "name": "castVote",
      "outputs": [
        {
          "internalType": "uint256",
          "name": "",
          "type": "uint256"
        }
      ],
      "stateMutability": "nonpayable",
      "type": "function"
    },
    {
      "inputs": [
        {
          "internalType": "uint256",
          "name": "proposalId",
          "type": "uint256"
        },
        {
          "internalType": "uint8",
          "name": "support",
          "type": "uint8"
        },
        {
          "internalType": "uint8",
          "name": "v",
          "type": "uint8"
        },
        {
          "internalType": "bytes32",
          "name": "r",
          "type": "bytes32"
        },
        {
          "internalType": "bytes32",
          "name": "s",
          "type": "bytes32"
        }
      ],
      "name": "castVoteBySig",
      "outputs": [
        {
          "internalType": "uint256",
          "name": "",
          "type": "uint256"
        }
      ],
      "stateMutability": "nonpayable",
      "type": "function"
    },
    {
      "inputs": [
        {
          "internalType": "uint256",
          "name": "proposalId",
          "type": "uint256"
        },
        {
          "internalType": "uint8",
          "name": "support",
          "type": "uint8"
        },
        {
          "internalType": "string",
          "name": "reason",
          "type": "string"
        }
      ],
      "name": "castVoteWithReason",
      "outputs": [
        {
          "internalType": "uint256",
          "name": "",
          "type": "uint256"
        }
      ],
      "stateMutability": "nonpayable",
      "type": "function"
    },
    {
      "inputs": [
        {
          "internalType": "uint256",
          "name": "proposalId",
          "type": "uint256"
        },
        {
          "internalType": "uint8",
          "name": "support",
          "type": "uint8"
        },
        {
          "internalType": "string",
          "name": "reason",
          "type": "string"
        },
        {
          "internalType": "bytes",
          "name": "params",
          "type": "bytes"
        }
      ],
      "name": "castVoteWithReasonAndParams",
      "outputs": [
        {
          "internalType": "uint256",
          "name": "",
          "type": "uint256"
        }
      ],
      "stateMutability": "nonpayable",
      "type": "function"
    },
    {
      "inputs": [
        {
          "internalType": "uint256",
          "name": "proposalId",
          "type": "uint256"
        },
        {
          "internalType": "uint8",
          "name": "support",
          "type": "uint8"
        },
        {
          "internalType": "string",
          "name": "reason",
          "type": "string"
        },
        {
          "internalType": "bytes",
          "name": "params",
          "type": "bytes"
        },
        {
          "internalType": "uint8",
          "name": "v",
          "type": "uint8"
        },
        {
          "internalType": "bytes32",
          "name": "r",
          "type": "bytes32"
        },
        {
          "internalType": "bytes32",
          "name": "s",
          "type": "bytes32"
        }
      ],
      "name": "castVoteWithReasonAndParamsBySig",
      "outputs": [
        {
          "internalType": "uint256",
          "name": "",
          "type": "uint256"
        }
      ],
      "stateMutability": "nonpayable",
      "type": "function"
    },
    {
      "inputs": [],
      "name": "chainId",
      "outputs": [
        {
          "internalType": "uint16",
          "name": "",
          "type": "uint16"
        }
      ],
      "stateMutability": "view",
      "type": "function"
    },
    {
      "inputs": [
        {
          "internalType": "uint256",
          "name": "",
          "type": "uint256"
        }
      ],
      "name": "collectionFinished",
      "outputs": [
        {
          "internalType": "bool",
          "name": "",
          "type": "bool"
        }
      ],
      "stateMutability": "view",
      "type": "function"
    },
    {
      "inputs": [
        {
          "internalType": "uint256",
          "name": "",
          "type": "uint256"
        }
      ],
      "name": "collectionStarted",
      "outputs": [
        {
          "internalType": "bool",
          "name": "",
          "type": "bool"
        }
      ],
      "stateMutability": "view",
      "type": "function"
    },
    {
      "inputs": [
        {
          "internalType": "address[]",
          "name": "targets",
          "type": "address[]"
        },
        {
          "internalType": "uint256[]",
          "name": "values",
          "type": "uint256[]"
        },
        {
          "internalType": "bytes[]",
          "name": "calldatas",
          "type": "bytes[]"
        },
        {
          "internalType": "string",
          "name": "description",
          "type": "string"
        }
      ],
      "name": "crossChainPropose",
      "outputs": [
        {
          "internalType": "uint256",
          "name": "",
          "type": "uint256"
        }
      ],
      "stateMutability": "payable",
      "type": "function"
    },
    {
      "inputs": [
        {
          "internalType": "address[]",
          "name": "targets",
          "type": "address[]"
        },
        {
          "internalType": "uint256[]",
          "name": "values",
          "type": "uint256[]"
        },
        {
          "internalType": "bytes[]",
          "name": "calldatas",
          "type": "bytes[]"
        },
        {
          "internalType": "bytes32",
          "name": "descriptionHash",
          "type": "bytes32"
        }
      ],
      "name": "execute",
      "outputs": [
        {
          "internalType": "uint256",
          "name": "",
          "type": "uint256"
        }
      ],
      "stateMutability": "payable",
      "type": "function"
    },
    {
      "inputs": [
        {
          "internalType": "address",
          "name": "account",
          "type": "address"
        },
        {
          "internalType": "uint256",
          "name": "blockNumber",
          "type": "uint256"
        }
      ],
      "name": "getVotes",
      "outputs": [
        {
          "internalType": "uint256",
          "name": "",
          "type": "uint256"
        }
      ],
      "stateMutability": "view",
      "type": "function"
    },
    {
      "inputs": [
        {
          "internalType": "address",
          "name": "account",
          "type": "address"
        },
        {
          "internalType": "uint256",
          "name": "blockNumber",
          "type": "uint256"
        },
        {
          "internalType": "bytes",
          "name": "params",
          "type": "bytes"
        }
      ],
      "name": "getVotesWithParams",
      "outputs": [
        {
          "internalType": "uint256",
          "name": "",
          "type": "uint256"
        }
      ],
      "stateMutability": "view",
      "type": "function"
    },
    {
      "inputs": [
        {
          "internalType": "uint256",
          "name": "proposalId",
          "type": "uint256"
        },
        {
          "internalType": "address",
          "name": "account",
          "type": "address"
        }
      ],
      "name": "hasVoted",
      "outputs": [
        {
          "internalType": "bool",
          "name": "",
          "type": "bool"
        }
      ],
      "stateMutability": "view",
      "type": "function"
    },
    {
      "inputs": [
        {
          "internalType": "address[]",
          "name": "targets",
          "type": "address[]"
        },
        {
          "internalType": "uint256[]",
          "name": "values",
          "type": "uint256[]"
        },
        {
          "internalType": "bytes[]",
          "name": "calldatas",
          "type": "bytes[]"
        },
        {
          "internalType": "bytes32",
          "name": "descriptionHash",
          "type": "bytes32"
        }
      ],
      "name": "hashProposal",
      "outputs": [
        {
          "internalType": "uint256",
          "name": "",
          "type": "uint256"
        }
      ],
      "stateMutability": "pure",
      "type": "function"
    },
    {
      "inputs": [],
      "name": "magistrate",
      "outputs": [
        {
          "internalType": "address",
          "name": "",
          "type": "address"
        }
      ],
      "stateMutability": "view",
      "type": "function"
    },
    {
      "inputs": [],
      "name": "name",
      "outputs": [
        {
          "internalType": "string",
          "name": "",
          "type": "string"
        }
      ],
      "stateMutability": "view",
      "type": "function"
    },
    {
      "inputs": [],
      "name": "nonce",
      "outputs": [
        {
          "internalType": "uint16",
          "name": "",
          "type": "uint16"
        }
      ],
      "stateMutability": "view",
      "type": "function"
    },
    {
      "inputs": [
        {
          "internalType": "address",
          "name": "",
          "type": "address"
        },
        {
          "internalType": "address",
          "name": "",
          "type": "address"
        },
        {
          "internalType": "uint256[]",
          "name": "",
          "type": "uint256[]"
        },
        {
          "internalType": "uint256[]",
          "name": "",
          "type": "uint256[]"
        },
        {
          "internalType": "bytes",
          "name": "",
          "type": "bytes"
        }
      ],
      "name": "onERC1155BatchReceived",
      "outputs": [
        {
          "internalType": "bytes4",
          "name": "",
          "type": "bytes4"
        }
      ],
      "stateMutability": "nonpayable",
      "type": "function"
    },
    {
      "inputs": [
        {
          "internalType": "address",
          "name": "",
          "type": "address"
        },
        {
          "internalType": "address",
          "name": "",
          "type": "address"
        },
        {
          "internalType": "uint256",
          "name": "",
          "type": "uint256"
        },
        {
          "internalType": "uint256",
          "name": "",
          "type": "uint256"
        },
        {
          "internalType": "bytes",
          "name": "",
          "type": "bytes"
        }
      ],
      "name": "onERC1155Received",
      "outputs": [
        {
          "internalType": "bytes4",
          "name": "",
          "type": "bytes4"
        }
      ],
      "stateMutability": "nonpayable",
      "type": "function"
    },
    {
      "inputs": [
        {
          "internalType": "address",
          "name": "",
          "type": "address"
        },
        {
          "internalType": "address",
          "name": "",
          "type": "address"
        },
        {
          "internalType": "uint256",
          "name": "",
          "type": "uint256"
        },
        {
          "internalType": "bytes",
          "name": "",
          "type": "bytes"
        }
      ],
      "name": "onERC721Received",
      "outputs": [
        {
          "internalType": "bytes4",
          "name": "",
          "type": "bytes4"
        }
      ],
      "stateMutability": "nonpayable",
      "type": "function"
    },
    {
      "inputs": [],
      "name": "owner",
      "outputs": [
        {
          "internalType": "address",
          "name": "",
          "type": "address"
        }
      ],
      "stateMutability": "view",
      "type": "function"
    },
    {
      "inputs": [
        {
          "internalType": "bytes32",
          "name": "",
          "type": "bytes32"
        }
      ],
      "name": "processedMessages",
      "outputs": [
        {
          "internalType": "bool",
          "name": "",
          "type": "bool"
        }
      ],
      "stateMutability": "view",
      "type": "function"
    },
    {
      "inputs": [
        {
          "internalType": "uint256",
          "name": "proposalId",
          "type": "uint256"
        }
      ],
      "name": "proposalDeadline",
      "outputs": [
        {
          "internalType": "uint256",
          "name": "",
          "type": "uint256"
        }
      ],
      "stateMutability": "view",
      "type": "function"
    },
    {
      "inputs": [
        {
          "internalType": "uint256",
          "name": "proposalId",
          "type": "uint256"
        }
      ],
      "name": "proposalEta",
      "outputs": [
        {
          "internalType": "uint256",
          "name": "",
          "type": "uint256"
        }
      ],
      "stateMutability": "view",
      "type": "function"
    },
    {
      "inputs": [
        {
          "internalType": "uint256",
          "name": "proposalId",
          "type": "uint256"
        }
      ],
      "name": "proposalSnapshot",
      "outputs": [
        {
          "internalType": "uint256",
          "name": "",
          "type": "uint256"
        }
      ],
      "stateMutability": "view",
      "type": "function"
    },
    {
      "inputs": [],
      "name": "proposalThreshold",
      "outputs": [
        {
          "internalType": "uint256",
          "name": "",
          "type": "uint256"
        }
      ],
      "stateMutability": "view",
      "type": "function"
    },
    {
      "inputs": [
        {
          "internalType": "uint256",
          "name": "proposalId",
          "type": "uint256"
        }
      ],
      "name": "proposalVotes",
      "outputs": [
        {
          "internalType": "uint256",
          "name": "againstVotes",
          "type": "uint256"
        },
        {
          "internalType": "uint256",
          "name": "forVotes",
          "type": "uint256"
        },
        {
          "internalType": "uint256",
          "name": "abstainVotes",
          "type": "uint256"
        }
      ],
      "stateMutability": "view",
      "type": "function"
    },
    {
      "inputs": [
        {
          "internalType": "address[]",
          "name": "",
          "type": "address[]"
        },
        {
          "internalType": "uint256[]",
          "name": "",
          "type": "uint256[]"
        },
        {
          "internalType": "bytes[]",
          "name": "",
          "type": "bytes[]"
        },
        {
          "internalType": "string",
          "name": "",
          "type": "string"
        }
      ],
      "name": "propose",
      "outputs": [
        {
          "internalType": "uint256",
          "name": "",
          "type": "uint256"
        }
      ],
      "stateMutability": "pure",
      "type": "function"
    },
    {
      "inputs": [
        {
          "internalType": "address[]",
          "name": "targets",
          "type": "address[]"
        },
        {
          "internalType": "uint256[]",
          "name": "values",
          "type": "uint256[]"
        },
        {
          "internalType": "bytes[]",
          "name": "calldatas",
          "type": "bytes[]"
        },
        {
          "internalType": "bytes32",
          "name": "descriptionHash",
          "type": "bytes32"
        }
      ],
      "name": "queue",
      "outputs": [
        {
          "internalType": "uint256",
          "name": "",
          "type": "uint256"
        }
      ],
      "stateMutability": "nonpayable",
      "type": "function"
    },
    {
      "inputs": [
        {
          "internalType": "uint256",
          "name": "blockNumber",
          "type": "uint256"
        }
      ],
      "name": "quorum",
      "outputs": [
        {
          "internalType": "uint256",
          "name": "",
          "type": "uint256"
        }
      ],
      "stateMutability": "view",
      "type": "function"
    },
    {
      "inputs": [],
      "name": "quorumDenominator",
      "outputs": [
        {
          "internalType": "uint256",
          "name": "",
          "type": "uint256"
        }
      ],
      "stateMutability": "view",
      "type": "function"
    },
    {
      "inputs": [
        {
          "internalType": "uint256",
          "name": "blockNumber",
          "type": "uint256"
        }
      ],
      "name": "quorumNumerator",
      "outputs": [
        {
          "internalType": "uint256",
          "name": "",
          "type": "uint256"
        }
      ],
      "stateMutability": "view",
      "type": "function"
    },
    {
      "inputs": [],
      "name": "quorumNumerator",
      "outputs": [
        {
          "internalType": "uint256",
          "name": "",
          "type": "uint256"
        }
      ],
      "stateMutability": "view",
      "type": "function"
    },
    {
      "inputs": [
        {
          "internalType": "bytes",
          "name": "payload",
          "type": "bytes"
        },
        {
          "internalType": "bytes[]",
          "name": "additionalVaas",
          "type": "bytes[]"
        },
        {
          "internalType": "bytes32",
          "name": "sourceAddress",
          "type": "bytes32"
        },
        {
          "internalType": "uint16",
          "name": "sourceChain",
          "type": "uint16"
        },
        {
          "internalType": "bytes32",
          "name": "deliveryHash",
          "type": "bytes32"
        }
      ],
      "name": "receiveWormholeMessages",
      "outputs": [],
      "stateMutability": "payable",
      "type": "function"
    },
    {
      "inputs": [
        {
          "internalType": "address",
          "name": "target",
          "type": "address"
        },
        {
          "internalType": "uint256",
          "name": "value",
          "type": "uint256"
        },
        {
          "internalType": "bytes",
          "name": "data",
          "type": "bytes"
        }
      ],
      "name": "relay",
      "outputs": [],
      "stateMutability": "payable",
      "type": "function"
    },
    {
      "inputs": [],
      "name": "renounceOwnership",
      "outputs": [],
      "stateMutability": "nonpayable",
      "type": "function"
    },
    {
      "inputs": [
        {
          "internalType": "uint256",
          "name": "proposalId",
          "type": "uint256"
        }
      ],
      "name": "requestCollections",
      "outputs": [],
      "stateMutability": "nonpayable",
      "type": "function"
    },
    {
      "inputs": [
        {
          "internalType": "uint256",
          "name": "newProposalThreshold",
          "type": "uint256"
        }
      ],
      "name": "setProposalThreshold",
      "outputs": [],
      "stateMutability": "nonpayable",
      "type": "function"
    },
    {
      "inputs": [
        {
          "internalType": "uint256",
          "name": "newVotingDelay",
          "type": "uint256"
        }
      ],
      "name": "setVotingDelay",
      "outputs": [],
      "stateMutability": "nonpayable",
      "type": "function"
    },
    {
      "inputs": [
        {
          "internalType": "uint256",
          "name": "newVotingPeriod",
          "type": "uint256"
        }
      ],
      "name": "setVotingPeriod",
      "outputs": [],
      "stateMutability": "nonpayable",
      "type": "function"
    },
    {
      "inputs": [
        {
          "internalType": "uint256",
          "name": "",
          "type": "uint256"
        }
      ],
      "name": "spokeContracts",
      "outputs": [
        {
          "internalType": "bytes32",
          "name": "contractAddress",
          "type": "bytes32"
        },
        {
          "internalType": "uint16",
          "name": "chainId",
          "type": "uint16"
        }
      ],
      "stateMutability": "view",
      "type": "function"
    },
    {
      "inputs": [
        {
          "internalType": "bytes32",
          "name": "",
          "type": "bytes32"
        },
        {
          "internalType": "uint16",
          "name": "",
          "type": "uint16"
        }
      ],
      "name": "spokeContractsMapping",
      "outputs": [
        {
          "internalType": "bool",
          "name": "",
          "type": "bool"
        }
      ],
      "stateMutability": "view",
      "type": "function"
    },
    {
      "inputs": [
        {
          "internalType": "uint256",
          "name": "",
          "type": "uint256"
        },
        {
          "internalType": "bytes32",
          "name": "",
          "type": "bytes32"
        },
        {
          "internalType": "uint16",
          "name": "",
          "type": "uint16"
        }
      ],
      "name": "spokeContractsMappingSnapshots",
      "outputs": [
        {
          "internalType": "bool",
          "name": "",
          "type": "bool"
        }
      ],
      "stateMutability": "view",
      "type": "function"
    },
    {
      "inputs": [
        {
          "internalType": "uint256",
          "name": "",
          "type": "uint256"
        },
        {
          "internalType": "uint256",
          "name": "",
          "type": "uint256"
        }
      ],
      "name": "spokeContractsSnapshots",
      "outputs": [
        {
          "internalType": "bytes32",
          "name": "contractAddress",
          "type": "bytes32"
        },
        {
          "internalType": "uint16",
          "name": "chainId",
          "type": "uint16"
        }
      ],
      "stateMutability": "view",
      "type": "function"
    },
    {
      "inputs": [
        {
          "internalType": "uint256",
          "name": "",
          "type": "uint256"
        },
        {
          "internalType": "bytes32",
          "name": "",
          "type": "bytes32"
        },
        {
          "internalType": "uint16",
          "name": "",
          "type": "uint16"
        }
      ],
      "name": "spokeVotes",
      "outputs": [
        {
          "internalType": "uint256",
          "name": "forVotes",
          "type": "uint256"
        },
        {
          "internalType": "uint256",
          "name": "againstVotes",
          "type": "uint256"
        },
        {
          "internalType": "uint256",
          "name": "abstainVotes",
          "type": "uint256"
        },
        {
          "internalType": "bool",
          "name": "initialized",
          "type": "bool"
        }
      ],
      "stateMutability": "view",
      "type": "function"
    },
    {
      "inputs": [
        {
          "internalType": "uint256",
          "name": "proposalId",
          "type": "uint256"
        }
      ],
      "name": "state",
      "outputs": [
        {
          "internalType": "enum IGovernor.ProposalState",
          "name": "",
          "type": "uint8"
        }
      ],
      "stateMutability": "view",
      "type": "function"
    },
    {
      "inputs": [
        {
          "internalType": "bytes4",
          "name": "interfaceId",
          "type": "bytes4"
        }
      ],
      "name": "supportsInterface",
      "outputs": [
        {
          "internalType": "bool",
          "name": "",
          "type": "bool"
        }
      ],
      "stateMutability": "view",
      "type": "function"
    },
    {
      "inputs": [],
      "name": "timelock",
      "outputs": [
        {
          "internalType": "address",
          "name": "",
          "type": "address"
        }
      ],
      "stateMutability": "view",
      "type": "function"
    },
    {
      "inputs": [],
      "name": "token",
      "outputs": [
        {
          "internalType": "contract IVotes",
          "name": "",
          "type": "address"
        }
      ],
      "stateMutability": "view",
      "type": "function"
    },
    {
      "inputs": [
        {
          "internalType": "address",
          "name": "newMagistrate",
          "type": "address"
        }
      ],
      "name": "transferMagistrate",
      "outputs": [],
      "stateMutability": "nonpayable",
      "type": "function"
    },
    {
      "inputs": [
        {
          "internalType": "address",
          "name": "newOwner",
          "type": "address"
        }
      ],
      "name": "transferOwnership",
      "outputs": [],
      "stateMutability": "nonpayable",
      "type": "function"
    },
    {
      "inputs": [
        {
          "internalType": "uint256",
          "name": "newQuorumNumerator",
          "type": "uint256"
        }
      ],
      "name": "updateQuorumNumerator",
      "outputs": [],
      "stateMutability": "nonpayable",
      "type": "function"
    },
    {
      "inputs": [
        {
          "components": [
            {
              "internalType": "bytes32",
              "name": "contractAddress",
              "type": "bytes32"
            },
            {
              "internalType": "uint16",
              "name": "chainId",
              "type": "uint16"
            }
          ],
          "internalType": "struct CrossChainGovernorCountingSimple.CrossChainAddress[]",
          "name": "_spokeContracts",
          "type": "tuple[]"
        }
      ],
      "name": "updateSpokeContracts",
      "outputs": [],
      "stateMutability": "nonpayable",
      "type": "function"
    },
    {
      "inputs": [
        {
          "internalType": "contract TimelockController",
          "name": "newTimelock",
          "type": "address"
        }
      ],
      "name": "updateTimelock",
      "outputs": [],
      "stateMutability": "nonpayable",
      "type": "function"
    },
    {
      "inputs": [],
      "name": "version",
      "outputs": [
        {
          "internalType": "string",
          "name": "",
          "type": "string"
        }
      ],
      "stateMutability": "view",
      "type": "function"
    },
    {
      "inputs": [],
      "name": "votingDelay",
      "outputs": [
        {
          "internalType": "uint256",
          "name": "",
          "type": "uint256"
        }
      ],
      "stateMutability": "view",
      "type": "function"
    },
    {
      "inputs": [],
      "name": "votingPeriod",
      "outputs": [
        {
          "internalType": "uint256",
          "name": "",
          "type": "uint256"
        }
      ],
      "stateMutability": "view",
      "type": "function"
    },
    {
      "inputs": [],
      "name": "wormholeRelayer",
      "outputs": [
        {
          "internalType": "contract IWormholeRelayer",
          "name": "",
          "type": "address"
        }
      ],
      "stateMutability": "view",
      "type": "function"
    },
    {
      "stateMutability": "payable",
      "type": "receive"
    }
  ],
  "bytecode": {
    "object": "0x6101a06040526012805461ffff60a01b191690553480156200002057600080fd5b50604051620069e7380380620069e7833981016040819052620000439162000c68565b808560048887600161012c60006040518060400160405280601181526020017026b2ba30a43ab6b0b723b7bb32b93737b960791b815250806200008b620001c860201b60201c565b815160209283012081519183019190912060e08290526101008190524660a0818152604080517f8b73c3c69bb8fe3d512ecc4cf759cc79239f7b179b0ffacaa9a75d522b39400f818801819052818301969096526060810194909452608080850193909352308483018190528151808603909301835260c09485019091528151919095012090529190915261012052600062000128828262000e3f565b5062000136905083620001e3565b620001418262000224565b6200014c81620002cb565b50505062000169620001636200030c60201b60201c565b62000310565b620001748162000362565b506001600160a01b0316610140526200018d81620005c1565b50620001998162000718565b50620001a58162000781565b505061ffff909116610180526001600160a01b0316610160525062000fbe915050565b6040805180820190915260018152603160f81b602082015290565b60045460408051918252602082018390527fc565b045403dc03c2eea82b81a0465edad9e2e7fc4d97e11421c209da93d7a93910160405180910390a1600455565b600081116200028a5760405162461bcd60e51b815260206004820152602760248201527f476f7665726e6f7253657474696e67733a20766f74696e6720706572696f6420604482015266746f6f206c6f7760c81b60648201526084015b60405180910390fd5b60055460408051918252602082018390527f7e3f7f0708a84de9203036abaa450dccc85ad5ff52f78c170f3edb55cf5e8828910160405180910390a1600555565b60065460408051918252602082018390527fccb45da8d5717e6c4544694297c4ba5cf151d455c9bb0ed4fc7a38411bc05461910160405180910390a1600655565b3390565b600780546001600160a01b038381166001600160a01b0319831681179093556040519116919082907f8be0079c531659141344cd1fd0a4f28419497f9722a3daafe3b4186f6b6457e090600090a35050565b6200036c620007d3565b60095460015b8181116200040057600060096200038b60018462000f21565b815481106200039e576200039e62000f3d565b600091825260208083206040805180820182526002909402909101805480855260019091015461ffff9081169484019485529085526008835281852093511684529190529020805460ff1916905550620003f88162000f53565b905062000372565b506200040f6009600062000b6f565b815160015b8181116200057a576000846200042c60018462000f21565b815181106200043f576200043f62000f3d565b602090810291909101810151805160009081526008835260408082208385015161ffff168352909352919091205490915060ff161515600103620004c65760405162461bcd60e51b815260206004820152601a60248201527f4475706c69636174657320617265206e6f7420616c6c6f776564000000000000604482015260640162000281565b80516000908152600860209081526040808320828501805161ffff9081168652919093529083208054600160ff19909116811790915560098054918201815590935292517f6e1540171b6c0c960b71a7020d9f60077f6af931a8bbf590da0223dacf75c7af600290930292830155517f6e1540171b6c0c960b71a7020d9f60077f6af931a8bbf590da0223dacf75c7b0909101805461ffff191691909216179055620005728162000f53565b905062000414565b5060096040516200058c919062000f6f565b604051908190038120907fabfe8157b42cfc40503d794ecb43abbe99d180868288128344cb1c3340635f0a90600090a2505050565b6064811115620006465760405162461bcd60e51b815260206004820152604360248201527f476f7665726e6f72566f74657351756f72756d4672616374696f6e3a2071756f60448201527f72756d4e756d657261746f72206f7665722071756f72756d44656e6f6d696e616064820152623a37b960e91b608482015260a40162000281565b60006200065262000831565b90508015801590620006645750600f54155b15620006cc576040805180820190915260008152600f90602081016200068a846200085e565b6001600160e01b0390811690915282546001810184556000938452602093849020835194909301519091166401000000000263ffffffff909316929092179101555b620006d9600f83620008cd565b505060408051828152602081018490527f0553476bf02ef2726e8ce5ced78d63e26e602e4a2257b1f559418e24b4633997910160405180910390a15050565b601054604080516001600160a01b03928316815291831660208301527f08f74ea46ef7894f65eabfb5e6e695de773a000b47c529ab559178069b226401910160405180910390a1601080546001600160a01b0319166001600160a01b0392909216919091179055565b601280546001600160a01b038381166001600160a01b0319831681179093556040519116919082907fb4aa40c4569b1278aa7da5bab0f345910781d388f8257b0bec17a317e2efb6b590600090a35050565b6007546001600160a01b031633146200082f5760405162461bcd60e51b815260206004820181905260248201527f4f776e61626c653a2063616c6c6572206973206e6f7420746865206f776e6572604482015260640162000281565b565b600f5460009015620008575762000849600f62000907565b6001600160e01b0316905090565b50600e5490565b60006001600160e01b03821115620008c95760405162461bcd60e51b815260206004820152602760248201527f53616665436173743a2076616c756520646f65736e27742066697420696e20326044820152663234206269747360c81b606482015260840162000281565b5090565b600080620008f184620008e04362000955565b620008eb866200085e565b620009bc565b6001600160e01b03918216969116945092505050565b805460009080156200094b5762000933836200092560018462000f21565b600091825260209091200190565b5464010000000090046001600160e01b03166200094e565b60005b9392505050565b600063ffffffff821115620008c95760405162461bcd60e51b815260206004820152602660248201527f53616665436173743a2076616c756520646f65736e27742066697420696e203360448201526532206269747360d01b606482015260840162000281565b82546000908190801562000b11576000620009de876200092560018562000f21565b60408051808201909152905463ffffffff8082168084526401000000009092046001600160e01b03166020840152919250908716101562000a625760405162461bcd60e51b815260206004820152601760248201527f436865636b706f696e743a20696e76616c6964206b6579000000000000000000604482015260640162000281565b805163ffffffff80881691160362000ab0578462000a87886200092560018662000f21565b80546001600160e01b03929092166401000000000263ffffffff90921691909117905562000b00565b6040805180820190915263ffffffff80881682526001600160e01b0380881660208085019182528b54600181018d5560008d81529190912094519151909216640100000000029216919091179101555b60200151925083915062000b679050565b50506040805180820190915263ffffffff80851682526001600160e01b0380851660208085019182528854600181018a5560008a8152918220955192519093166401000000000291909316179201919091559050815b935093915050565b508054600082556002029060005260206000209081019062000b92919062000b95565b50565b5b80821115620008c9576000815560018101805461ffff1916905560020162000b96565b6001600160a01b038116811462000b9257600080fd5b634e487b7160e01b600052604160045260246000fd5b604080519081016001600160401b038111828210171562000c0a5762000c0a62000bcf565b60405290565b604051601f8201601f191681016001600160401b038111828210171562000c3b5762000c3b62000bcf565b604052919050565b805161ffff8116811462000c5657600080fd5b919050565b805162000c568162000bb9565b60008060008060008060c0878903121562000c8257600080fd5b865162000c8f8162000bb9565b8096505060208088015162000ca48162000bb9565b604089810151919750906001600160401b038082111562000cc457600080fd5b818b0191508b601f83011262000cd957600080fd5b81518181111562000cee5762000cee62000bcf565b62000cfe858260051b0162000c10565b818152858101925060069190911b83018501908d82111562000d1f57600080fd5b928501925b8184101562000d6d5784848f03121562000d3e5760008081fd5b62000d4862000be5565b8451815262000d5987860162000c43565b818801528352928401929185019162000d24565b80995050505050505062000d846060880162000c43565b925062000d946080880162000c5b565b915062000da460a0880162000c5b565b90509295509295509295565b600181811c9082168062000dc557607f821691505b60208210810362000de657634e487b7160e01b600052602260045260246000fd5b50919050565b601f82111562000e3a57600081815260208120601f850160051c8101602086101562000e155750805b601f850160051c820191505b8181101562000e365782815560010162000e21565b5050505b505050565b81516001600160401b0381111562000e5b5762000e5b62000bcf565b62000e738162000e6c845462000db0565b8462000dec565b602080601f83116001811462000eab576000841562000e925750858301515b600019600386901b1c1916600185901b17855562000e36565b600085815260208120601f198616915b8281101562000edc5788860151825594840194600190910190840162000ebb565b508582101562000efb5787850151600019600388901b60f8161c191681555b5050505050600190811b01905550565b634e487b7160e01b600052601160045260246000fd5b8181038181111562000f375762000f3762000f0b565b92915050565b634e487b7160e01b600052603260045260246000fd5b60006001820162000f685762000f6862000f0b565b5060010190565b60008183548391508460005260208060002060005b8381101562000fb2578154855260018083015461ffff16848701526040909501946002909201910162000f84565b50929695505050505050565b60805160a05160c05160e051610100516101205161014051610160516101805161598762001060600039600081816109560152611736015260008181610b09015281816112f70152818161187901528181611fa10152613042015260008181610d1b015281816132920152613779015260006138f5015260006139440152600061391f01526000613878015260006138a2015260006138cc01526159876000f3fe6080604052600436106103a65760003560e01c80637d5e81e2116101e7578063c01f9e371161010d578063eb9019d4116100a0578063f2fde38b1161006f578063f2fde38b14610ca9578063f8ce560a14610cc9578063fbcd1c6014610ce9578063fc0c546a14610d0957600080fd5b8063eb9019d414610bc5578063ece40cc114610be5578063f16ca84114610c05578063f23a6e6114610c7d57600080fd5b8063da25b725116100dc578063da25b72514610af7578063dd4e2ba514610b2b578063deaaa7cc14610b71578063ea0217cf14610ba557600080fd5b8063c01f9e3714610a86578063c28bc2fa14610aa6578063c59057e414610ab9578063d33219b414610ad957600080fd5b8063a7713a7011610185578063b58131b011610154578063b58131b014610a02578063b626afa214610a17578063bc197c8114610a2a578063be43a6f514610a5657600080fd5b8063a7713a701461098b578063a890c910146109a0578063ab58fb8e146109c0578063affed0e0146109e057600080fd5b80638da5cb5b116101c15780638da5cb5b146108f257806397c3d334146109105780639a802a6d146109245780639a8a05921461094457600080fd5b80637d5e81e214610872578063835f6ac41461089257806388ba16ab146108c257600080fd5b806343859632116102cc578063567813881161026a5780636ff499c3116102395780636ff499c3146107fd57806370b0f6601461081d578063715018a61461083d5780637b3c71d31461085257600080fd5b806356781388146107655780635f398a141461078557806360c4247f146107a5578063660f54c2146107c557600080fd5b8063529dca32116102a6578063529dca32146106cd578063544ffc9c146106e057806354fd4d501461071b57806355f0f9c71461074557600080fd5b8063438596321461061657806345e6efa1146106605780634c24a5641461069257600080fd5b80632656227d1161034457806334feb3181161031357806334feb318146105945780633932abb1146105b45780633bccf4fd146105c95780633e4f49e6146105e957600080fd5b80632656227d146104ec5780632d63f693146104ff5780632fe3e2611461051f578063327bcb421461055357600080fd5b806306f3f9e61161038057806306f3f9e61461044657806306fdde0314610466578063150b7a0214610488578063160cbed7146104cc57600080fd5b806301ffc9a7146103ce57806302a251a314610403578063034201811461042657600080fd5b366103c957306103b4610d3d565b6001600160a01b0316146103c757600080fd5b005b600080fd5b3480156103da57600080fd5b506103ee6103e9366004614624565b610d56565b60405190151581526020015b60405180910390f35b34801561040f57600080fd5b50610418610d67565b6040519081526020016103fa565b34801561043257600080fd5b50610418610441366004614798565b610d72565b34801561045257600080fd5b506103c761046136600461483e565b610eac565b34801561047257600080fd5b5061047b610f36565b6040516103fa91906148a7565b34801561049457600080fd5b506104b36104a33660046148cf565b630a85bd0160e11b949350505050565b6040516001600160e01b031990911681526020016103fa565b3480156104d857600080fd5b506104186104e7366004614aa6565b610fc8565b6104186104fa366004614aa6565b611028565b34801561050b57600080fd5b5061041861051a36600461483e565b611115565b34801561052b57600080fd5b506104187fb3b3f3b703cd84ce352197dcff232b1b5d3cfb2025ce47cf04742d0651f1af8881565b34801561055f57600080fd5b506103ee61056e366004614b45565b600a60209081526000938452604080852082529284528284209052825290205460ff1681565b3480156105a057600080fd5b506103c76105af366004614b7e565b61114c565b3480156105c057600080fd5b506104186111ca565b3480156105d557600080fd5b506104186105e4366004614b9b565b6111d5565b3480156105f557600080fd5b5061060961060436600461483e565b611284565b6040516103fa9190614bff565b34801561062257600080fd5b506103ee610631366004614c27565b6000828152600d602090815260408083206001600160a01b038516845260030190915290205460ff1692915050565b34801561066c57600080fd5b506012546001600160a01b03165b6040516001600160a01b0390911681526020016103fa565b34801561069e57600080fd5b506103ee6106ad366004614c57565b600860209081526000928352604080842090915290825290205460ff1681565b6103c76106db366004614c7c565b6112ec565b3480156106ec57600080fd5b506107006106fb36600461483e565b6114c7565b604080519384526020840192909252908201526060016103fa565b34801561072757600080fd5b506040805180820190915260018152603160f81b602082015261047b565b34801561075157600080fd5b506103c761076036600461483e565b611602565b34801561077157600080fd5b50610418610780366004614d03565b611994565b34801561079157600080fd5b506104186107a0366004614d2f565b6119f3565b3480156107b157600080fd5b506104186107c036600461483e565b611a73565b3480156107d157600080fd5b506107e56107e0366004614db2565b611b0a565b6040805192835261ffff9091166020830152016103fa565b34801561080957600080fd5b506107e561081836600461483e565b611b4a565b34801561082957600080fd5b506103c761083836600461483e565b611b7c565b34801561084957600080fd5b506103c7611c03565b34801561085e57600080fd5b5061041861086d366004614dd4565b611c17565b34801561087e57600080fd5b5061041861088d366004614e2d565b611c95565b34801561089e57600080fd5b506103ee6108ad36600461483e565b60146020526000908152604090205460ff1681565b3480156108ce57600080fd5b506103ee6108dd36600461483e565b60136020526000908152604090205460ff1681565b3480156108fe57600080fd5b506007546001600160a01b031661067a565b34801561091c57600080fd5b506064610418565b34801561093057600080fd5b5061041861093f366004614ee1565b611cee565b34801561095057600080fd5b506109787f000000000000000000000000000000000000000000000000000000000000000081565b60405161ffff90911681526020016103fa565b34801561099757600080fd5b50610418611d05565b3480156109ac57600080fd5b506103c76109bb366004614b7e565b611d2f565b3480156109cc57600080fd5b506104186109db36600461483e565b611db6565b3480156109ec57600080fd5b5060125461097890600160a01b900461ffff1681565b348015610a0e57600080fd5b50610418611e50565b610418610a25366004614e2d565b611e5b565b348015610a3657600080fd5b506104b3610a45366004614f39565b63bc197c8160e01b95945050505050565b348015610a6257600080fd5b506103ee610a7136600461483e565b60156020526000908152604090205460ff1681565b348015610a9257600080fd5b50610418610aa136600461483e565b6120bf565b6103c7610ab4366004614fcc565b6120ee565b348015610ac557600080fd5b50610418610ad4366004614aa6565b6121fd565b348015610ae557600080fd5b506010546001600160a01b031661067a565b348015610b0357600080fd5b5061067a7f000000000000000000000000000000000000000000000000000000000000000081565b348015610b3757600080fd5b506040805180820190915260208082527f737570706f72743d627261766f2671756f72756d3d666f722c6162737461696e9082015261047b565b348015610b7d57600080fd5b506104187f150214d74d59b7d1e90c73fc22ef3d991dd0a76b046543d4d80ab92d2a50328f81565b348015610bb157600080fd5b506103c7610bc036600461483e565b612237565b348015610bd157600080fd5b50610418610be036600461500f565b6122be565b348015610bf157600080fd5b506103c7610c0036600461483e565b6122df565b348015610c1157600080fd5b50610c5b610c20366004614b45565b600c60209081526000938452604080852082529284528284209052825290208054600182015460028301546003909301549192909160ff1684565b60408051948552602085019390935291830152151560608201526080016103fa565b348015610c8957600080fd5b506104b3610c9836600461503b565b63f23a6e6160e01b95945050505050565b348015610cb557600080fd5b506103c7610cc4366004614b7e565b612366565b348015610cd557600080fd5b50610418610ce436600461483e565b6123dc565b348015610cf557600080fd5b506103c7610d043660046150a3565b6123e7565b348015610d1557600080fd5b5061067a7f000000000000000000000000000000000000000000000000000000000000000081565b6000610d516010546001600160a01b031690565b905090565b6000610d618261262c565b92915050565b6000610d5160055490565b600080610e16610e0e7fb3b3f3b703cd84ce352197dcff232b1b5d3cfb2025ce47cf04742d0651f1af888c8c8c8c604051610dae929190615157565b60405180910390208b80519060200120604051602001610df3959493929190948552602085019390935260ff9190911660408401526060830152608082015260a00190565b60405160208183030381529060405280519060200120612651565b86868661269f565b90506001610e238b611284565b6007811115610e3457610e34614be9565b14610e5a5760405162461bcd60e51b8152600401610e5190615167565b60405180910390fd5b610e9e8a828b8b8b8080601f0160208091040260200160405190810160405280939291908181526020018383808284376000920191909152508d92506126bd915050565b9a9950505050505050505050565b610eb4610d3d565b6001600160a01b0316336001600160a01b031614610ee45760405162461bcd60e51b8152600401610e51906151aa565b30610eed610d3d565b6001600160a01b031614610f2a5760008036604051610f0d929190615157565b604051809103902090505b80610f2360026127e6565b03610f1857505b610f3381612865565b50565b606060008054610f45906151e1565b80601f0160208091040260200160405190810160405280929190818152602001828054610f71906151e1565b8015610fbe5780601f10610f9357610100808354040283529160200191610fbe565b820191906000526020600020905b815481529060010190602001808311610fa157829003601f168201915b5050505050905090565b600080610fd7868686866121fd565b90506004610fe482611284565b6007811115610ff557610ff5614be9565b146110125760405162461bcd60e51b8152600401610e519061521b565b61101e868686866129b1565b9695505050505050565b600080611037868686866121fd565b9050600061104482611284565b9050600481600781111561105a5761105a614be9565b14806110775750600581600781111561107557611075614be9565b145b6110935760405162461bcd60e51b8152600401610e519061521b565b600082815260016020818152604092839020600201805460ff191690921790915590518381527f712ae1383f79ac853f8d882153778e0260ef8f03b504e2866e0593e04d2b291f910160405180910390a16110f18288888888612bb1565b6110fe8288888888612c46565b61110b8288888888612c53565b5095945050505050565b60008181526001602090815260408083208151928301909152546001600160401b0316908190525b6001600160401b031692915050565b611154612c8c565b6001600160a01b0381166111c15760405162461bcd60e51b815260206004820152602e60248201527f4d6167697374726174653a206e6577206d61676973747261746520697320746860448201526d65207a65726f206164647265737360901b6064820152608401610e51565b610f3381612cf7565b6000610d5160045490565b604080517f150214d74d59b7d1e90c73fc22ef3d991dd0a76b046543d4d80ab92d2a50328f602082015290810186905260ff85166060820152600090819061122390610e0e90608001610df3565b9050600161123088611284565b600781111561124157611241614be9565b1461125e5760405162461bcd60e51b8152600401610e5190615167565b61127987828860405180602001604052806000815250612d49565b979650505050505050565b60008061129083612d6c565b905060048160078111156112a6576112a6614be9565b14806112c3575060038160078111156112c1576112c1614be9565b145b80156112de575060008381526015602052604090205460ff16155b15610d615750600092915050565b336001600160a01b037f0000000000000000000000000000000000000000000000000000000000000000161461135b5760405162461bcd60e51b815260206004820152601460248201527313db9b1e481c995b185e595c88185b1b1bddd95960621b6044820152606401610e51565b600083815260086020908152604080832061ffff8616845290915290205460ff166113ee5760405162461bcd60e51b815260206004820152603760248201527f4f6e6c79206d657373616765732066726f6d207468652073706f6b6520636f6e60448201527f7472616374732063616e206265207265636569766564210000000000000000006064820152608401610e51565b60008181526013602052604090205460ff161561144d5760405162461bcd60e51b815260206004820152601960248201527f4d65737361676520616c72656164792070726f636573736564000000000000006044820152606401610e51565b60008086806020019051810190611464919061525c565b935050509150306001600160a01b0316826001600160a01b03161461148857600080fd5b60008381526013602090815260408220805460ff191660011790558201519061ffff821690036114bd576114bd858784612eb6565b5050505050505050565b6000818152600d602052604081208054600180830154600284015460095486958695909490939291905b818161ffff16116115f3576000600961150b600184615323565b61ffff168154811061151f5761151f615345565b9060005260206000209060020201604051806040016040529081600082015481526020016001820160009054906101000a900461ffff1661ffff1661ffff168152505090506000600c60008d81526020019081526020016000206000836000015181526020019081526020016000206000836020015161ffff1661ffff16815260200190815260200160002090508060010154876115bd919061535b565b81549097506115cc908761535b565b95508060020154856115de919061535b565b94505050806115ec9061536e565b90506114f1565b50929891975095509350505050565b61160b816120bf565b431161168f5760405162461bcd60e51b815260206004820152604760248201527f43616e6e6f74207265717565737420666f7220766f746520636f6c6c6563746960448201527f6f6e20756e74696c2061667465722074686520766f746520706572696f64206960648201526673206f7665722160c81b608482015260a401610e51565b60008181526014602052604090205460ff16156117145760405162461bcd60e51b815260206004820152603760248201527f436f6c6c656374696f6e20706861736520666f7220746869732070726f706f7360448201527f616c2068617320616c72656164792073746172746564210000000000000000006064820152608401610e51565b6000818152601460205260408120805460ff191660011790556009549061175b7f000000000000000000000000000000000000000000000000000000000000000082613016565b905060015b828161ffff161161198e57604080516001602082015290810185905260009060600160408051601f198184030181529190529050600060096117a3600185615323565b61ffff16815481106117b7576117b7615345565b600091825260209091206002909102015460096117d5600186615323565b61ffff16815481106117e9576117e9615345565b600091825260209182902060016002909202010154604051611817939261ffff90921691339187910161538f565b60408051601f198184030181529190529050600061186d600961183b600187615323565b61ffff168154811061184f5761184f615345565b600091825260209091206001600290920201015461ffff1686613016565b90506001600160a01b037f000000000000000000000000000000000000000000000000000000000000000016638fecdd028260096118ac600189615323565b61ffff16815481106118c0576118c0615345565b60009182526020909120600160029092020181015461ffff16906009906118e7908a615323565b61ffff16815481106118fb576118fb615345565b90600052602060002090600202016000015460001c868a6207a1206040518763ffffffff1660e01b81526004016119369594939291906153c3565b60206040518083038185885af1158015611954573d6000803e3d6000fd5b50505050506040513d601f19601f820116820180604052508101906119799190615405565b50505050806119879061536e565b9050611760565b50505050565b60003360016119a285611284565b60078111156119b3576119b3614be9565b146119d05760405162461bcd60e51b8152600401610e5190615167565b6119eb84828560405180602001604052806000815250612d49565b949350505050565b6000336001611a0188611284565b6007811115611a1257611a12614be9565b14611a2f5760405162461bcd60e51b8152600401610e5190615167565b61127987828888888080601f0160208091040260200160405190810160405280939291908181526020018383808284376000920191909152508a92506126bd915050565b600f54600090808203611a8a575050600e54919050565b6000600f611a9960018461542e565b81548110611aa957611aa9615345565b60009182526020918290206040805180820190915291015463ffffffff8116808352600160201b9091046001600160e01b03169282019290925291508410611aff57602001516001600160e01b03169392505050565b6119eb600f856130bc565b600b6020528160005260406000208181548110611b2657600080fd5b60009182526020909120600290910201805460019091015490925061ffff16905082565b60098181548110611b5a57600080fd5b60009182526020909120600290910201805460019091015490915061ffff1682565b611b84610d3d565b6001600160a01b0316336001600160a01b031614611bb45760405162461bcd60e51b8152600401610e51906151aa565b30611bbd610d3d565b6001600160a01b031614611bfa5760008036604051611bdd929190615157565b604051809103902090505b80611bf360026127e6565b03611be857505b610f338161317c565b611c0b6131bd565b611c156000613217565b565b6000336001611c2587611284565b6007811115611c3657611c36614be9565b14611c535760405162461bcd60e51b8152600401610e5190615167565b61101e86828787878080601f016020809104026020016040519081016040528093929190818152602001838380828437600092019190915250612d4992505050565b60405162461bcd60e51b815260206004820152602560248201527f506c65617365207573652063726f7373436861696e50726f706f736520696e736044820152643a32b0b21760d91b6064820152600090608401610e51565b6000611cfb848484613269565b90505b9392505050565b600f5460009015611d2857611d1a600f6132ff565b6001600160e01b0316905090565b50600e5490565b611d37610d3d565b6001600160a01b0316336001600160a01b031614611d675760405162461bcd60e51b8152600401610e51906151aa565b30611d70610d3d565b6001600160a01b031614611dad5760008036604051611d90929190615157565b604051809103902090505b80611da660026127e6565b03611d9b57505b610f338161332f565b60105460008281526011602052604080822054905163d45c443560e01b81526004810191909152909182916001600160a01b039091169063d45c443590602401602060405180830381865afa158015611e13573d6000803e3d6000fd5b505050506040513d601f19601f82011682018060405250810190611e379190615441565b905080600114611e475780611cfe565b60009392505050565b6000610d5160065490565b6000611e65612c8c565b6000611e7386868686613398565b600954909150156120b65760095460015b818161ffff16116120b3576040805160006020820181905291810185905242606082015260800160408051601f19818403018152919052905060006009611ecc600185615323565b61ffff1681548110611ee057611ee0615345565b60009182526020909120600290910201546009611efe600186615323565b61ffff1681548110611f1257611f12615345565b600091825260209182902060016002909202010154604051611f40939261ffff90921691309187910161545a565b60408051601f1981840301815291905290506000611f956009611f64600187615323565b61ffff1681548110611f7857611f78615345565b6000918252602082206001600290920201015461ffff1690613016565b90506001600160a01b037f000000000000000000000000000000000000000000000000000000000000000016638fecdd02826009611fd4600189615323565b61ffff1681548110611fe857611fe8615345565b60009182526020909120600160029092020181015461ffff169060099061200f908a615323565b61ffff168154811061202357612023615345565b600091825260208220600290910201546040516001600160e01b031960e087901b16815261205b939289916207a120906004016153c3565b60206040518083038185885af1158015612079573d6000803e3d6000fd5b50505050506040513d601f19601f8201168201806040525081019061209e9190615405565b50505050806120ac9061536e565b9050611e84565b50505b95945050505050565b60008181526001602081815260408084208151928301909152909101546001600160401b03169081905261113d565b6120f6610d3d565b6001600160a01b0316336001600160a01b0316146121265760405162461bcd60e51b8152600401610e51906151aa565b3061212f610d3d565b6001600160a01b03161461216c576000803660405161214f929190615157565b604051809103902090505b8061216560026127e6565b0361215a57505b600080856001600160a01b031685858560405161218a929190615157565b60006040518083038185875af1925050503d80600081146121c7576040519150601f19603f3d011682016040523d82523d6000602084013e6121cc565b606091505b50915091506121f4828260405180606001604052806028815260200161592a6028913961365b565b50505050505050565b600084848484604051602001612216949392919061554c565b60408051601f19818403018152919052805160209091012095945050505050565b61223f610d3d565b6001600160a01b0316336001600160a01b03161461226f5760405162461bcd60e51b8152600401610e51906151aa565b30612278610d3d565b6001600160a01b0316146122b55760008036604051612298929190615157565b604051809103902090505b806122ae60026127e6565b036122a357505b610f3381613674565b6000611cfe83836122da60408051602081019091526000815290565b613269565b6122e7610d3d565b6001600160a01b0316336001600160a01b0316146123175760405162461bcd60e51b8152600401610e51906151aa565b30612320610d3d565b6001600160a01b03161461235d5760008036604051612340929190615157565b604051809103902090505b8061235660026127e6565b0361234b57505b610f3381613715565b61236e6131bd565b6001600160a01b0381166123d35760405162461bcd60e51b815260206004820152602660248201527f4f776e61626c653a206e6577206f776e657220697320746865207a65726f206160448201526564647265737360d01b6064820152608401610e51565b610f3381613217565b6000610d6182613756565b6123ef6131bd565b60095460015b81811161247a576000600961240b60018461542e565b8154811061241b5761241b615345565b600091825260208083206040805180820182526002909402909101805480855260019091015461ffff9081169484019485529085526008835281852093511684529190529020805460ff191690555061247381615597565b90506123f5565b50612487600960006145e6565b815160015b8181116125e7576000846124a160018461542e565b815181106124b1576124b1615345565b602090810291909101810151805160009081526008835260408082208385015161ffff168352909352919091205490915060ff1615156001036125365760405162461bcd60e51b815260206004820152601a60248201527f4475706c69636174657320617265206e6f7420616c6c6f7765640000000000006044820152606401610e51565b80516000908152600860209081526040808320828501805161ffff9081168652919093529083208054600160ff19909116811790915560098054918201815590935292517f6e1540171b6c0c960b71a7020d9f60077f6af931a8bbf590da0223dacf75c7af600290930292830155517f6e1540171b6c0c960b71a7020d9f60077f6af931a8bbf590da0223dacf75c7b0909101805461ffff1916919092161790556125e081615597565b905061248c565b5060096040516125f791906155b0565b604051908190038120907fabfe8157b42cfc40503d794ecb43abbe99d180868288128344cb1c3340635f0a90600090a2505050565b60006001600160e01b03198216636e665ced60e01b1480610d615750610d6182613800565b6000610d6161265e61386b565b8360405161190160f01b6020820152602281018390526042810182905260009060620160405160208183030381529060405280519060200120905092915050565b60008060006126b087878787613992565b9150915061110b81613a56565b60008581526001602081905260408220906126d788611284565b60078111156126e8576126e8614be9565b146127055760405162461bcd60e51b8152600401610e5190615167565b604080516020810190915281546001600160401b03169081905260009061272e90889086613269565b905061273d8888888488613ba0565b835160000361279257866001600160a01b03167fb8e138887d0aa13bab447e82de9d5c1777041ecd21ca36ba824ff1e6c07ddda48988848960405161278594939291906155fd565b60405180910390a2611279565b866001600160a01b03167fe2babfbac5889a709b63bb7f598b324e08bc5a4fb9ec647fb3cbc9ec07eb871289888489896040516127d3959493929190615625565b60405180910390a2979650505050505050565b60006128018254600f81810b600160801b909204900b131590565b1561281f57604051631ed9509560e11b815260040160405180910390fd5b508054600f0b6000818152600180840160205260408220805492905583546fffffffffffffffffffffffffffffffff191692016001600160801b03169190911790915590565b60648111156128e85760405162461bcd60e51b815260206004820152604360248201527f476f7665726e6f72566f74657351756f72756d4672616374696f6e3a2071756f60448201527f72756d4e756d657261746f72206f7665722071756f72756d44656e6f6d696e616064820152623a37b960e91b608482015260a401610e51565b60006128f2611d05565b905080158015906129035750600f54155b15612967576040805180820190915260008152600f906020810161292684613d22565b6001600160e01b039081169091528254600181018455600093845260209384902083519490930151909116600160201b0263ffffffff909316929092179101555b612972600f83613d8f565b505060408051828152602081018490527f0553476bf02ef2726e8ce5ced78d63e26e602e4a2257b1f559418e24b4633997910160405180910390a15050565b6000806129c0868686866121fd565b905060046129cd82611284565b60078111156129de576129de614be9565b146129fb5760405162461bcd60e51b8152600401610e519061521b565b6010546040805163793d064960e11b815290516000926001600160a01b03169163f27a0c929160048083019260209291908290030181865afa158015612a45573d6000803e3d6000fd5b505050506040513d601f19601f82011682018060405250810190612a699190615441565b60105460405163b1c5f42760e01b81529192506001600160a01b03169063b1c5f42790612aa3908a908a908a906000908b9060040161566b565b602060405180830381865afa158015612ac0573d6000803e3d6000fd5b505050506040513d601f19601f82011682018060405250810190612ae49190615441565b6000838152601160205260408082209290925560105491516308f2a0bb60e41b81526001600160a01b0390921691638f2a0bb091612b2f918b918b918b91908b9089906004016156b9565b600060405180830381600087803b158015612b4957600080fd5b505af1158015612b5d573d6000803e3d6000fd5b505050507f9a2e42fd6722813d69113e7d0079d3d940171428df7373df9c7f7617cfda2892828242612b8f919061535b565b6040805192835260208301919091520160405180910390a15095945050505050565b612bba85613dc5565b60008581526015602052604090205460ff16612c325760405162461bcd60e51b815260206004820152603160248201527f436f6c6c656374696f6e20706861736520666f7220746869732070726f706f73604482015270616c20697320756e66696e69736865642160781b6064820152608401610e51565b612c3f8585858585613ec4565b5050505050565b612c3f8585858585613f5d565b30612c5c610d3d565b6001600160a01b031614612c3f57600254600f81810b600160801b909204900b1315612c3f576000600255612c3f565b6012546001600160a01b03163314611c155760405162461bcd60e51b815260206004820152602860248201527f4d6167697374726174653a2063616c6c6572206973206e6f7420746865206d61604482015267676973747261746560c01b6064820152608401610e51565b601280546001600160a01b038381166001600160a01b0319831681179093556040519116919082907fb4aa40c4569b1278aa7da5bab0f345910781d388f8257b0bec17a317e2efb6b590600090a35050565b60006120b685858585612d6760408051602081019091526000815290565b6126bd565b600080612d7883613fd1565b90506004816007811115612d8e57612d8e614be9565b14612d995792915050565b60008381526011602052604090205480612db4575092915050565b601054604051632ab0f52960e01b8152600481018390526001600160a01b0390911690632ab0f52990602401602060405180830381865afa158015612dfd573d6000803e3d6000fd5b505050506040513d601f19601f82011682018060405250810190612e219190615711565b15612e30575060079392505050565b601054604051632c258a9f60e11b8152600481018390526001600160a01b039091169063584b153e90602401602060405180830381865afa158015612e79573d6000803e3d6000fd5b505050506040513d601f19601f82011682018060405250810190612e9d9190615711565b15612eac575060059392505050565b5060029392505050565b60008060008084806020019051810190612ed09190615733565b945094509450945050600c6000858152602001908152602001600020600087815260200190815260200160002060008861ffff1661ffff16815260200190815260200160002060030160009054906101000a900460ff1615612f6b5760405162461bcd60e51b8152602060048201526014602482015273416c726561647920696e697469616c697a65642160601b6044820152606401610e51565b604051806080016040528084815260200183815260200182815260200160011515815250600c6000868152602001908152602001600020600088815260200190815260200160002060008961ffff1661ffff16815260200190815260200160002060008201518160000155602082015181600101556040820151816002015560608201518160030160006101000a81548160ff0219169083151502179055509050506121f484613dc5565b60405163c23ee3c360e01b815261ffff83166004820152602481018290526207a12060448201526000907f00000000000000000000000000000000000000000000000000000000000000006001600160a01b03169063c23ee3c3906064016040805180830381865afa158015613090573d6000803e3d6000fd5b505050506040513d601f19601f820116820180604052508101906130b4919061577c565b509392505050565b600043821061310d5760405162461bcd60e51b815260206004820181905260248201527f436865636b706f696e74733a20626c6f636b206e6f7420796574206d696e65646044820152606401610e51565b6000613118836140d1565b8454909150600061312b86848385614136565b90508015613166576131508661314260018461542e565b600091825260209091200190565b54600160201b90046001600160e01b0316613169565b60005b6001600160e01b03169695505050505050565b60045460408051918252602082018390527fc565b045403dc03c2eea82b81a0465edad9e2e7fc4d97e11421c209da93d7a93910160405180910390a1600455565b6007546001600160a01b03163314611c155760405162461bcd60e51b815260206004820181905260248201527f4f776e61626c653a2063616c6c6572206973206e6f7420746865206f776e65726044820152606401610e51565b600780546001600160a01b038381166001600160a01b0319831681179093556040519116919082907f8be0079c531659141344cd1fd0a4f28419497f9722a3daafe3b4186f6b6457e090600090a35050565b604051630748d63560e31b81526001600160a01b038481166004830152602482018490526000917f000000000000000000000000000000000000000000000000000000000000000090911690633a46b1a890604401602060405180830381865afa1580156132db573d6000803e3d6000fd5b505050506040513d601f19601f82011682018060405250810190611cfb9190615441565b80546000908015611e47576133198361314260018461542e565b54600160201b90046001600160e01b0316611cfe565b601054604080516001600160a01b03928316815291831660208301527f08f74ea46ef7894f65eabfb5e6e695de773a000b47c529ab559178069b226401910160405180910390a1601080546001600160a01b0319166001600160a01b0392909216919091179055565b60006133a2611e50565b6133b133610be060014361542e565b10156134195760405162461bcd60e51b815260206004820152603160248201527f476f7665726e6f723a2070726f706f73657220766f7465732062656c6f7720706044820152701c9bdc1bdcd85b081d1a1c995cda1bdb19607a1b6064820152608401610e51565b600061342e86868686805190602001206121fd565b905084518651146134515760405162461bcd60e51b8152600401610e51906157a0565b83518651146134725760405162461bcd60e51b8152600401610e51906157a0565b60008651116134c35760405162461bcd60e51b815260206004820152601860248201527f476f7665726e6f723a20656d7074792070726f706f73616c00000000000000006044820152606401610e51565b600081815260016020908152604091829020825191820190925281546001600160401b031690819052156135435760405162461bcd60e51b815260206004820152602160248201527f476f7665726e6f723a2070726f706f73616c20616c72656164792065786973746044820152607360f81b6064820152608401610e51565b60006135556135506111ca565b61418c565b61355e4361418c565b61356891906157e1565b90506000613577613550610d67565b61358190836157e1565b835467ffffffffffffffff19166001600160401b038416178455905060018301805467ffffffffffffffff19166001600160401b0383161790557f7d84a6263ae0d98d3329bd7b46bb4e8d6f98cd35a7adb45c274c8b7fd5ebd5e084338b8b8d516001600160401b038111156135f9576135f96146a5565b60405190808252806020026020018201604052801561362c57816020015b60608152602001906001900390816136175790505b508c88888e60405161364699989796959493929190615801565b60405180910390a15091979650505050505050565b6060831561366a575081611cfe565b611cfe83836141f4565b600081116136d45760405162461bcd60e51b815260206004820152602760248201527f476f7665726e6f7253657474696e67733a20766f74696e6720706572696f6420604482015266746f6f206c6f7760c81b6064820152608401610e51565b60055460408051918252602082018390527f7e3f7f0708a84de9203036abaa450dccc85ad5ff52f78c170f3edb55cf5e8828910160405180910390a1600555565b60065460408051918252602082018390527fccb45da8d5717e6c4544694297c4ba5cf151d455c9bb0ed4fc7a38411bc05461910160405180910390a1600655565b6000606461376383611a73565b604051632394e7a360e21b8152600481018590527f00000000000000000000000000000000000000000000000000000000000000006001600160a01b031690638e539e8c90602401602060405180830381865afa1580156137c8573d6000803e3d6000fd5b505050506040513d601f19601f820116820180604052508101906137ec9190615441565b6137f691906158f0565b610d619190615907565b60006001600160e01b0319821663bf26d89760e01b148061383157506001600160e01b031982166379dd796f60e01b145b8061384c57506001600160e01b03198216630271189760e51b145b80610d6157506301ffc9a760e01b6001600160e01b0319831614610d61565b6000306001600160a01b037f0000000000000000000000000000000000000000000000000000000000000000161480156138c457507f000000000000000000000000000000000000000000000000000000000000000046145b156138ee57507f000000000000000000000000000000000000000000000000000000000000000090565b50604080517f00000000000000000000000000000000000000000000000000000000000000006020808301919091527f0000000000000000000000000000000000000000000000000000000000000000828401527f000000000000000000000000000000000000000000000000000000000000000060608301524660808301523060a0808401919091528351808403909101815260c0909201909252805191012090565b6000807f7fffffffffffffffffffffffffffffff5d576e7357a4501ddfe92f46681b20a08311156139c95750600090506003613a4d565b6040805160008082526020820180845289905260ff881692820192909252606081018690526080810185905260019060a0016020604051602081039080840390855afa158015613a1d573d6000803e3d6000fd5b5050604051601f1901519150506001600160a01b038116613a4657600060019250925050613a4d565b9150600090505b94509492505050565b6000816004811115613a6a57613a6a614be9565b03613a725750565b6001816004811115613a8657613a86614be9565b03613ad35760405162461bcd60e51b815260206004820152601860248201527f45434453413a20696e76616c6964207369676e617475726500000000000000006044820152606401610e51565b6002816004811115613ae757613ae7614be9565b03613b345760405162461bcd60e51b815260206004820152601f60248201527f45434453413a20696e76616c6964207369676e6174757265206c656e677468006044820152606401610e51565b6003816004811115613b4857613b48614be9565b03610f335760405162461bcd60e51b815260206004820152602260248201527f45434453413a20696e76616c6964207369676e6174757265202773272076616c604482015261756560f01b6064820152608401610e51565b6000858152600d602090815260408083206001600160a01b0388168452600381019092529091205460ff1615613c285760405162461bcd60e51b815260206004820152602760248201527f476f7665726e6f72566f74696e6753696d706c653a20766f746520616c726561604482015266191e4818d85cdd60ca1b6064820152608401610e51565b6001600160a01b03851660009081526003820160205260409020805460ff1916600117905560ff8416613c745782816000016000828254613c69919061535b565b90915550613d1a9050565b60001960ff851601613c945782816001016000828254613c69919061535b565b60011960ff851601613cb45782816002016000828254613c69919061535b565b60405162461bcd60e51b815260206004820152603560248201527f476f7665726e6f72566f74696e6753696d706c653a20696e76616c69642076616044820152746c756520666f7220656e756d20566f74655479706560581b6064820152608401610e51565b505050505050565b60006001600160e01b03821115613d8b5760405162461bcd60e51b815260206004820152602760248201527f53616665436173743a2076616c756520646f65736e27742066697420696e20326044820152663234206269747360c81b6064820152608401610e51565b5090565b600080613dad84613d9f436140d1565b613da886613d22565b61421e565b6001600160e01b0391821693501690505b9250929050565b600954600190815b818161ffff1611158015613dde5750825b15613ea257828015613e9057506000848152600c60205260408120906009613e07600185615323565b61ffff1681548110613e1b57613e1b615345565b906000526020600020906002020160000154815260200190815260200160002060006009600184613e4c9190615323565b61ffff1681548110613e6057613e60615345565b600091825260208083206001600290930201919091015461ffff16835282019290925260400190206003015460ff165b9250613e9b8161536e565b9050613dcd565b5050600091825260156020526040909120805460ff1916911515919091179055565b30613ecd610d3d565b6001600160a01b031614612c3f5760005b8451811015613d1a57306001600160a01b0316858281518110613f0357613f03615345565b60200260200101516001600160a01b031603613f4d57613f4d838281518110613f2e57613f2e615345565b60200260200101518051906020012060026143c190919063ffffffff16565b613f5681615597565b9050613ede565b60105460405163e38335e560e01b81526001600160a01b039091169063e38335e5903490613f9890889088908890600090899060040161566b565b6000604051808303818588803b158015613fb157600080fd5b505af1158015613fc5573d6000803e3d6000fd5b50505050505050505050565b6000818152600160205260408120600281015460ff1615613ff55750600792915050565b6002810154610100900460ff16156140105750600292915050565b600061401b84611115565b90508060000361406d5760405162461bcd60e51b815260206004820152601d60248201527f476f7665726e6f723a20756e6b6e6f776e2070726f706f73616c2069640000006044820152606401610e51565b43811061407e575060009392505050565b6000614089856120bf565b905043811061409d57506001949350505050565b6140a6856143fd565b80156140b657506140b6856144f1565b156140c657506004949350505050565b506003949350505050565b600063ffffffff821115613d8b5760405162461bcd60e51b815260206004820152602660248201527f53616665436173743a2076616c756520646f65736e27742066697420696e203360448201526532206269747360d01b6064820152608401610e51565b60005b818310156130b457600061414d84846145cb565b60008781526020902090915063ffffffff86169082015463ffffffff16111561417857809250614186565b61418381600161535b565b93505b50614139565b60006001600160401b03821115613d8b5760405162461bcd60e51b815260206004820152602660248201527f53616665436173743a2076616c756520646f65736e27742066697420696e203660448201526534206269747360d01b6064820152608401610e51565b8151156142045781518083602001fd5b8060405162461bcd60e51b8152600401610e5191906148a7565b82546000908190801561436457600061423c8761314260018561542e565b60408051808201909152905463ffffffff808216808452600160201b9092046001600160e01b0316602084015291925090871610156142bd5760405162461bcd60e51b815260206004820152601760248201527f436865636b706f696e743a20696e76616c6964206b65790000000000000000006044820152606401610e51565b805163ffffffff80881691160361430557846142de8861314260018661542e565b80546001600160e01b0392909216600160201b0263ffffffff909216919091179055614354565b6040805180820190915263ffffffff80881682526001600160e01b0380881660208085019182528b54600181018d5560008d81529190912094519151909216600160201b029216919091179101555b6020015192508391506143b99050565b50506040805180820190915263ffffffff80851682526001600160e01b0380851660208085019182528854600181018a5560008a815291822095519251909316600160201b0291909316179201919091559050815b935093915050565b8154600160801b90819004600f0b6000818152600180860160205260409091209390935583546001600160801b03908116939091011602179055565b6000818152600d60205260408120600281015460018083015460095490915b818161ffff16116144ce5760006009614436600184615323565b61ffff168154811061444a5761444a615345565b600091825260208083206040805180820182526002948502909201805483526001015461ffff9081168385019081528e8752600c855282872084518852855282872090519091168652909252922090810154919250906144aa908761535b565b81549096506144b9908661535b565b94505050806144c79061536e565b905061441c565b506144d9838361535b565b6144e5610ce488611115565b11159695505050505050565b6000818152600d60205260408120805460018083015460095490915b818161ffff16116145c15760006009614527600184615323565b61ffff168154811061453b5761453b615345565b6000918252602080832060408051808201825260029094029091018054845260019081015461ffff9081168585019081528e8752600c8552838720865188528552838720905190911686529092529092209182015490925061459d908761535b565b81549096506145ac908661535b565b94505050806145ba9061536e565b905061450d565b5050119392505050565b60006145da6002848418615907565b611cfe9084841661535b565b5080546000825560020290600052602060002090810190610f3391905b80821115613d8b576000815560018101805461ffff19169055600201614603565b60006020828403121561463657600080fd5b81356001600160e01b031981168114611cfe57600080fd5b803560ff8116811461465f57600080fd5b919050565b60008083601f84011261467657600080fd5b5081356001600160401b0381111561468d57600080fd5b602083019150836020828501011115613dbe57600080fd5b634e487b7160e01b600052604160045260246000fd5b604080519081016001600160401b03811182821017156146dd576146dd6146a5565b60405290565b604051601f8201601f191681016001600160401b038111828210171561470b5761470b6146a5565b604052919050565b60006001600160401b0382111561472c5761472c6146a5565b50601f01601f191660200190565b600061474d61474884614713565b6146e3565b905082815283838301111561476157600080fd5b828260208301376000602084830101529392505050565b600082601f83011261478957600080fd5b611cfe8383356020850161473a565b60008060008060008060008060e0898b0312156147b457600080fd5b883597506147c460208a0161464e565b965060408901356001600160401b03808211156147e057600080fd5b6147ec8c838d01614664565b909850965060608b013591508082111561480557600080fd5b506148128b828c01614778565b94505061482160808a0161464e565b925060a0890135915060c089013590509295985092959890939650565b60006020828403121561485057600080fd5b5035919050565b60005b8381101561487257818101518382015260200161485a565b50506000910152565b60008151808452614893816020860160208601614857565b601f01601f19169290920160200192915050565b602081526000611cfe602083018461487b565b6001600160a01b0381168114610f3357600080fd5b600080600080608085870312156148e557600080fd5b84356148f0816148ba565b93506020850135614900816148ba565b92506040850135915060608501356001600160401b0381111561492257600080fd5b61492e87828801614778565b91505092959194509250565b60006001600160401b03821115614953576149536146a5565b5060051b60200190565b600082601f83011261496e57600080fd5b8135602061497e6147488361493a565b82815260059290921b8401810191818101908684111561499d57600080fd5b8286015b848110156149c15780356149b4816148ba565b83529183019183016149a1565b509695505050505050565b600082601f8301126149dd57600080fd5b813560206149ed6147488361493a565b82815260059290921b84018101918181019086841115614a0c57600080fd5b8286015b848110156149c15780358352918301918301614a10565b600082601f830112614a3857600080fd5b81356020614a486147488361493a565b82815260059290921b84018101918181019086841115614a6757600080fd5b8286015b848110156149c15780356001600160401b03811115614a8a5760008081fd5b614a988986838b0101614778565b845250918301918301614a6b565b60008060008060808587031215614abc57600080fd5b84356001600160401b0380821115614ad357600080fd5b614adf8883890161495d565b95506020870135915080821115614af557600080fd5b614b01888389016149cc565b94506040870135915080821115614b1757600080fd5b50614b2487828801614a27565b949793965093946060013593505050565b61ffff81168114610f3357600080fd5b600080600060608486031215614b5a57600080fd5b83359250602084013591506040840135614b7381614b35565b809150509250925092565b600060208284031215614b9057600080fd5b8135611cfe816148ba565b600080600080600060a08688031215614bb357600080fd5b85359450614bc36020870161464e565b9350614bd16040870161464e565b94979396509394606081013594506080013592915050565b634e487b7160e01b600052602160045260246000fd5b6020810160088310614c2157634e487b7160e01b600052602160045260246000fd5b91905290565b60008060408385031215614c3a57600080fd5b823591506020830135614c4c816148ba565b809150509250929050565b60008060408385031215614c6a57600080fd5b823591506020830135614c4c81614b35565b600080600080600060a08688031215614c9457600080fd5b85356001600160401b0380821115614cab57600080fd5b614cb789838a01614778565b96506020880135915080821115614ccd57600080fd5b50614cda88828901614a27565b945050604086013592506060860135614cf281614b35565b949793965091946080013592915050565b60008060408385031215614d1657600080fd5b82359150614d266020840161464e565b90509250929050565b600080600080600060808688031215614d4757600080fd5b85359450614d576020870161464e565b935060408601356001600160401b0380821115614d7357600080fd5b614d7f89838a01614664565b90955093506060880135915080821115614d9857600080fd5b50614da588828901614778565b9150509295509295909350565b60008060408385031215614dc557600080fd5b50508035926020909101359150565b60008060008060608587031215614dea57600080fd5b84359350614dfa6020860161464e565b925060408501356001600160401b03811115614e1557600080fd5b614e2187828801614664565b95989497509550505050565b60008060008060808587031215614e4357600080fd5b84356001600160401b0380821115614e5a57600080fd5b614e668883890161495d565b95506020870135915080821115614e7c57600080fd5b614e88888389016149cc565b94506040870135915080821115614e9e57600080fd5b614eaa88838901614a27565b93506060870135915080821115614ec057600080fd5b508501601f81018713614ed257600080fd5b61492e8782356020840161473a565b600080600060608486031215614ef657600080fd5b8335614f01816148ba565b92506020840135915060408401356001600160401b03811115614f2357600080fd5b614f2f86828701614778565b9150509250925092565b600080600080600060a08688031215614f5157600080fd5b8535614f5c816148ba565b94506020860135614f6c816148ba565b935060408601356001600160401b0380821115614f8857600080fd5b614f9489838a016149cc565b94506060880135915080821115614faa57600080fd5b614fb689838a016149cc565b93506080880135915080821115614d9857600080fd5b60008060008060608587031215614fe257600080fd5b8435614fed816148ba565b93506020850135925060408501356001600160401b03811115614e1557600080fd5b6000806040838503121561502257600080fd5b823561502d816148ba565b946020939093013593505050565b600080600080600060a0868803121561505357600080fd5b853561505e816148ba565b9450602086013561506e816148ba565b9350604086013592506060860135915060808601356001600160401b0381111561509757600080fd5b614da588828901614778565b600060208083850312156150b657600080fd5b82356001600160401b038111156150cc57600080fd5b8301601f810185136150dd57600080fd5b80356150eb6147488261493a565b81815260069190911b8201830190838101908783111561510a57600080fd5b928401925b8284101561127957604084890312156151285760008081fd5b6151306146bb565b843581528585013561514181614b35565b818701528252604093909301929084019061510f565b8183823760009101908152919050565b60208082526023908201527f476f7665726e6f723a20766f7465206e6f742063757272656e746c792061637460408201526269766560e81b606082015260800190565b60208082526018908201527f476f7665726e6f723a206f6e6c79476f7665726e616e63650000000000000000604082015260600190565b600181811c908216806151f557607f821691505b60208210810361521557634e487b7160e01b600052602260045260246000fd5b50919050565b60208082526021908201527f476f7665726e6f723a2070726f706f73616c206e6f74207375636365737366756040820152601b60fa1b606082015260800190565b6000806000806080858703121561527257600080fd5b845161527d816148ba565b602086015190945061528e81614b35565b604086015190935061529f816148ba565b60608601519092506001600160401b038111156152bb57600080fd5b8501601f810187136152cc57600080fd5b80516152da61474882614713565b8181528860208385010111156152ef57600080fd5b615300826020830160208601614857565b9598949750929550505050565b634e487b7160e01b600052601160045260246000fd5b61ffff82811682821603908082111561533e5761533e61530d565b5092915050565b634e487b7160e01b600052603260045260246000fd5b80820180821115610d6157610d6161530d565b600061ffff8083168181036153855761538561530d565b6001019392505050565b84815261ffff841660208201526001600160a01b038316604082015260806060820181905260009061101e9083018461487b565b61ffff861681526001600160a01b038516602082015260a0604082018190526000906153f19083018661487b565b606083019490945250608001529392505050565b60006020828403121561541757600080fd5b81516001600160401b0381168114611cfe57600080fd5b81810381811115610d6157610d6161530d565b60006020828403121561545357600080fd5b5051919050565b84815261ffff8416602082015282604082015260806060820152600061101e608083018461487b565b600081518084526020808501945080840160005b838110156154bc5781516001600160a01b031687529582019590820190600101615497565b509495945050505050565b600081518084526020808501945080840160005b838110156154bc578151875295820195908201906001016154db565b600081518084526020808501808196508360051b8101915082860160005b8581101561553f57828403895261552d84835161487b565b98850198935090840190600101615515565b5091979650505050505050565b60808152600061555f6080830187615483565b828103602084015261557181876154c7565b9050828103604084015261558581866154f7565b91505082606083015295945050505050565b6000600182016155a9576155a961530d565b5060010190565b60008183548391508460005260208060002060005b838110156155f1578154855260018083015461ffff1684870152604090950194600290920191016155c5565b50929695505050505050565b84815260ff8416602082015282604082015260806060820152600061101e608083018461487b565b85815260ff8516602082015283604082015260a06060820152600061564d60a083018561487b565b828103608084015261565f818561487b565b98975050505050505050565b60a08152600061567e60a0830188615483565b828103602084015261569081886154c7565b905082810360408401526156a481876154f7565b60608401959095525050608001529392505050565b60c0815260006156cc60c0830189615483565b82810360208401526156de81896154c7565b905082810360408401526156f281886154f7565b60608401969096525050608081019290925260a0909101529392505050565b60006020828403121561572357600080fd5b81518015158114611cfe57600080fd5b600080600080600060a0868803121561574b57600080fd5b855161575681614b35565b602087015160408801516060890151608090990151929a91995097965090945092505050565b6000806040838503121561578f57600080fd5b505080516020909101519092909150565b60208082526021908201527f476f7665726e6f723a20696e76616c69642070726f706f73616c206c656e67746040820152600d60fb1b606082015260800190565b6001600160401b0381811683821601908082111561533e5761533e61530d565b60006101208b8352602060018060a01b038c168185015281604085015261582a8285018c615483565b9150838203606085015261583e828b6154c7565b915083820360808501528189518084528284019150828160051b850101838c0160005b8381101561588f57601f1987840301855261587d83835161487b565b94860194925090850190600101615861565b505086810360a08801526158a3818c6154f7565b9450505050506158be60c08401876001600160401b03169052565b6001600160401b03851660e08401528281036101008401526158e0818561487b565b9c9b505050505050505050505050565b8082028115828204841417610d6157610d6161530d565b60008261592457634e487b7160e01b600052601260045260246000fd5b50049056fe476f7665726e6f723a2072656c617920726576657274656420776974686f7574206d657373616765a264697066735822122009f8279417dd72fef63e7b0aee0b20a9da7d666871c701d64b64ad0496ba0d6f64736f6c63430008150033",
    "linkReferences": {}
  },
  "methodIdentifiers": {
    "BALLOT_TYPEHASH()": "deaaa7cc",
    "COUNTING_MODE()": "dd4e2ba5",
    "EXTENDED_BALLOT_TYPEHASH()": "2fe3e261",
    "castVote(uint256,uint8)": "56781388",
    "castVoteBySig(uint256,uint8,uint8,bytes32,bytes32)": "3bccf4fd",
    "castVoteWithReason(uint256,uint8,string)": "7b3c71d3",
    "castVoteWithReasonAndParams(uint256,uint8,string,bytes)": "5f398a14",
    "castVoteWithReasonAndParamsBySig(uint256,uint8,string,bytes,uint8,bytes32,bytes32)": "03420181",
    "chainId()": "9a8a0592",
    "collectionFinished(uint256)": "be43a6f5",
    "collectionStarted(uint256)": "835f6ac4",
    "crossChainPropose(address[],uint256[],bytes[],string)": "b626afa2",
    "execute(address[],uint256[],bytes[],bytes32)": "2656227d",
    "getVotes(address,uint256)": "eb9019d4",
    "getVotesWithParams(address,uint256,bytes)": "9a802a6d",
    "hasVoted(uint256,address)": "43859632",
    "hashProposal(address[],uint256[],bytes[],bytes32)": "c59057e4",
    "magistrate()": "45e6efa1",
    "name()": "06fdde03",
    "nonce()": "affed0e0",
    "onERC1155BatchReceived(address,address,uint256[],uint256[],bytes)": "bc197c81",
    "onERC1155Received(address,address,uint256,uint256,bytes)": "f23a6e61",
    "onERC721Received(address,address,uint256,bytes)": "150b7a02",
    "owner()": "8da5cb5b",
    "processedMessages(bytes32)": "88ba16ab",
    "proposalDeadline(uint256)": "c01f9e37",
    "proposalEta(uint256)": "ab58fb8e",
    "proposalSnapshot(uint256)": "2d63f693",
    "proposalThreshold()": "b58131b0",
    "proposalVotes(uint256)": "544ffc9c",
    "propose(address[],uint256[],bytes[],string)": "7d5e81e2",
    "queue(address[],uint256[],bytes[],bytes32)": "160cbed7",
    "quorum(uint256)": "f8ce560a",
    "quorumDenominator()": "97c3d334",
    "quorumNumerator()": "a7713a70",
    "quorumNumerator(uint256)": "60c4247f",
    "receiveWormholeMessages(bytes,bytes[],bytes32,uint16,bytes32)": "529dca32",
    "relay(address,uint256,bytes)": "c28bc2fa",
    "renounceOwnership()": "715018a6",
    "requestCollections(uint256)": "55f0f9c7",
    "setProposalThreshold(uint256)": "ece40cc1",
    "setVotingDelay(uint256)": "70b0f660",
    "setVotingPeriod(uint256)": "ea0217cf",
    "spokeContracts(uint256)": "6ff499c3",
    "spokeContractsMapping(bytes32,uint16)": "4c24a564",
    "spokeContractsMappingSnapshots(uint256,bytes32,uint16)": "327bcb42",
    "spokeContractsSnapshots(uint256,uint256)": "660f54c2",
    "spokeVotes(uint256,bytes32,uint16)": "f16ca841",
    "state(uint256)": "3e4f49e6",
    "supportsInterface(bytes4)": "01ffc9a7",
    "timelock()": "d33219b4",
    "token()": "fc0c546a",
    "transferMagistrate(address)": "34feb318",
    "transferOwnership(address)": "f2fde38b",
    "updateQuorumNumerator(uint256)": "06f3f9e6",
    "updateSpokeContracts((bytes32,uint16)[])": "fbcd1c60",
    "updateTimelock(address)": "a890c910",
    "version()": "54fd4d50",
    "votingDelay()": "3932abb1",
    "votingPeriod()": "02a251a3",
    "wormholeRelayer()": "da25b725"
  },
  "id": 75
}