{
  "abi": [
    {
      "inputs": [
        {
          "internalType": "uint256",
          "name": "_totalSupply",
          "type": "uint256"
        },
        {
          "internalType": "string",
          "name": "_name",
          "type": "string"
        },
        {
          "internalType": "uint8",
          "name": "_decimals",
          "type": "uint8"
        },
        {
          "internalType": "string",
          "name": "_symbol",
          "type": "string"
        }
      ],
      "stateMutability": "nonpayable",
      "type": "constructor"
    },
    {
      "anonymous": false,
      "inputs": [
        {
          "indexed": true,
          "internalType": "address",
          "name": "_owner",
          "type": "address"
        },
        {
          "indexed": true,
          "internalType": "address",
          "name": "_spender",
          "type": "address"
        },
        {
          "indexed": false,
          "internalType": "uint256",
          "name": "_value",
          "type": "uint256"
        }
      ],
      "name": "Approval",
      "type": "event"
    },
    {
      "anonymous": false,
      "inputs": [
        {
          "indexed": true,
          "internalType": "uint256",
          "name": "_txId",
          "type": "uint256"
        },
        {
          "indexed": false,
          "internalType": "uint256",
          "name": "_bulkCount",
          "type": "uint256"
        }
      ],
      "name": "BulkApproval",
      "type": "event"
    },
    {
      "anonymous": false,
      "inputs": [
        {
          "indexed": true,
          "internalType": "uint256",
          "name": "_txId",
          "type": "uint256"
        },
        {
          "indexed": false,
          "internalType": "uint256",
          "name": "_bulkCount",
          "type": "uint256"
        }
      ],
      "name": "BulkTransfer",
      "type": "event"
    },
    {
      "anonymous": false,
      "inputs": [
        {
          "indexed": true,
          "internalType": "address",
          "name": "_from",
          "type": "address"
        },
        {
          "indexed": true,
          "internalType": "address",
          "name": "_to",
          "type": "address"
        },
        {
          "indexed": false,
          "internalType": "uint256",
          "name": "_value",
          "type": "uint256"
        }
      ],
      "name": "Transfer",
      "type": "event"
    },
    {
      "inputs": [
        {
          "internalType": "address",
          "name": "_owner",
          "type": "address"
        },
        {
          "internalType": "address",
          "name": "_spender",
          "type": "address"
        }
      ],
      "name": "allowance",
      "outputs": [
        {
          "internalType": "uint256",
          "name": "remaining",
          "type": "uint256"
        }
      ],
      "stateMutability": "view",
      "type": "function"
    },
    {
      "inputs": [
        {
          "internalType": "address",
          "name": "_spender",
          "type": "address"
        },
        {
          "internalType": "uint256",
          "name": "_value",
          "type": "uint256"
        }
      ],
      "name": "approve",
      "outputs": [
        {
          "internalType": "bool",
          "name": "success",
          "type": "bool"
        }
      ],
      "stateMutability": "nonpayable",
      "type": "function"
    },
    {
      "inputs": [
        {
          "internalType": "address[]",
          "name": "_spenders",
          "type": "address[]"
        },
        {
          "internalType": "uint256[]",
          "name": "_values",
          "type": "uint256[]"
        },
        {
          "internalType": "uint256",
          "name": "_txId",
          "type": "uint256"
        }
      ],
      "name": "approveBulk",
      "outputs": [
        {
          "internalType": "uint256",
          "name": "_bulkCount",
          "type": "uint256"
        }
      ],
      "stateMutability": "nonpayable",
      "type": "function"
    },
    {
      "inputs": [
        {
          "internalType": "address",
          "name": "_owner",
          "type": "address"
        }
      ],
      "name": "balanceOf",
      "outputs": [
        {
          "internalType": "uint256",
          "name": "balance",
          "type": "uint256"
        }
      ],
      "stateMutability": "view",
      "type": "function"
    },
    {
      "inputs": [],
      "name": "decimals",
      "outputs": [
        {
          "internalType": "uint8",
          "name": "",
          "type": "uint8"
        }
      ],
      "stateMutability": "view",
      "type": "function"
    },
    {
      "inputs": [
        {
          "internalType": "address",
          "name": "_spender",
          "type": "address"
        },
        {
          "internalType": "uint256",
          "name": "_delta",
          "type": "uint256"
        }
      ],
      "name": "decreaseApproval",
      "outputs": [
        {
          "internalType": "bool",
          "name": "success",
          "type": "bool"
        }
      ],
      "stateMutability": "nonpayable",
      "type": "function"
    },
    {
      "inputs": [
        {
          "internalType": "address",
          "name": "_spender",
          "type": "address"
        },
        {
          "internalType": "uint256",
          "name": "_delta",
          "type": "uint256"
        }
      ],
      "name": "increaseApproval",
      "outputs": [
        {
          "internalType": "bool",
          "name": "success",
          "type": "bool"
        }
      ],
      "stateMutability": "nonpayable",
      "type": "function"
    },
    {
      "inputs": [],
      "name": "name",
      "outputs": [
        {
          "internalType": "string",
          "name": "",
          "type": "string"
        }
      ],
      "stateMutability": "view",
      "type": "function"
    },
    {
      "inputs": [],
      "name": "symbol",
      "outputs": [
        {
          "internalType": "string",
          "name": "",
          "type": "string"
        }
      ],
      "stateMutability": "view",
      "type": "function"
    },
    {
      "inputs": [],
      "name": "totalSupply",
      "outputs": [
        {
          "internalType": "uint256",
          "name": "",
          "type": "uint256"
        }
      ],
      "stateMutability": "view",
      "type": "function"
    },
    {
      "inputs": [
        {
          "internalType": "address",
          "name": "_to",
          "type": "address"
        },
        {
          "internalType": "uint256",
          "name": "_value",
          "type": "uint256"
        }
      ],
      "name": "transfer",
      "outputs": [
        {
          "internalType": "bool",
          "name": "success",
          "type": "bool"
        }
      ],
      "stateMutability": "nonpayable",
      "type": "function"
    },
    {
      "inputs": [
        {
          "internalType": "address[]",
          "name": "_tos",
          "type": "address[]"
        },
        {
          "internalType": "uint256[]",
          "name": "_values",
          "type": "uint256[]"
        },
        {
          "internalType": "uint256",
          "name": "_txId",
          "type": "uint256"
        }
      ],
      "name": "transferBulk",
      "outputs": [
        {
          "internalType": "uint256",
          "name": "_bulkCount",
          "type": "uint256"
        }
      ],
      "stateMutability": "nonpayable",
      "type": "function"
    },
    {
      "inputs": [
        {
          "internalType": "address",
          "name": "_spender",
          "type": "address"
        },
        {
          "internalType": "address",
          "name": "_to",
          "type": "address"
        },
        {
          "internalType": "uint256",
          "name": "_value",
          "type": "uint256"
        }
      ],
      "name": "transferFrom",
      "outputs": [
        {
          "internalType": "bool",
          "name": "success",
          "type": "bool"
        }
      ],
      "stateMutability": "nonpayable",
      "type": "function"
    }
  ],
  "bytecode": {
    "object": "0x60806040523480156200001157600080fd5b506040516200160d3803806200160d833981016040819052620000349162000162565b6200004460ff8316600a62000306565b6200005090856200031b565b6000556003620000618482620003c4565b506004805460ff191660ff841617905560056200007f8282620003c4565b50506000805433825260016020526040909120555062000490915050565b634e487b7160e01b600052604160045260246000fd5b600082601f830112620000c557600080fd5b81516001600160401b0380821115620000e257620000e26200009d565b604051601f8301601f19908116603f011681019082821181831017156200010d576200010d6200009d565b816040528381526020925086838588010111156200012a57600080fd5b600091505b838210156200014e57858201830151818301840152908201906200012f565b600093810190920192909252949350505050565b600080600080608085870312156200017957600080fd5b845160208601519094506001600160401b03808211156200019957600080fd5b620001a788838901620000b3565b94506040870151915060ff82168214620001c057600080fd5b606087015191935080821115620001d657600080fd5b50620001e587828801620000b3565b91505092959194509250565b634e487b7160e01b600052601160045260246000fd5b600181815b80851115620002485781600019048211156200022c576200022c620001f1565b808516156200023a57918102915b93841c93908002906200020c565b509250929050565b600082620002615750600162000300565b81620002705750600062000300565b81600181146200028957600281146200029457620002b4565b600191505062000300565b60ff841115620002a857620002a8620001f1565b50506001821b62000300565b5060208310610133831016604e8410600b8410161715620002d9575081810a62000300565b620002e5838362000207565b8060001904821115620002fc57620002fc620001f1565b0290505b92915050565b600062000314838362000250565b9392505050565b8082028115828204841417620003005762000300620001f1565b600181811c908216806200034a57607f821691505b6020821081036200036b57634e487b7160e01b600052602260045260246000fd5b50919050565b601f821115620003bf57600081815260208120601f850160051c810160208610156200039a5750805b601f850160051c820191505b81811015620003bb57828155600101620003a6565b5050505b505050565b81516001600160401b03811115620003e057620003e06200009d565b620003f881620003f1845462000335565b8462000371565b602080601f831160018114620004305760008415620004175750858301515b600019600386901b1c1916600185901b178555620003bb565b600085815260208120601f198616915b82811015620004615788860151825594840194600190910190840162000440565b5085821015620004805787850151600019600388901b60f8161c191681555b5050505050600190811b01905550565b61116d80620004a06000396000f3fe608060405234801561001057600080fd5b50600436106100cf5760003560e01c806370a082311161008c578063d73dd62311610066578063d73dd623146101b5578063dd62ed3e146101c8578063e816d8d814610201578063e8f71d1b1461021457600080fd5b806370a082311461017157806395d89b411461019a578063a9059cbb146101a257600080fd5b806306fdde03146100d4578063095ea7b3146100f257806318160ddd1461011557806323b872dd1461012c578063313ce5671461013f578063661884631461015e575b600080fd5b6100dc610227565b6040516100e99190610d8c565b60405180910390f35b610105610100366004610df6565b6102b5565b60405190151581526020016100e9565b61011e60005481565b6040519081526020016100e9565b61010561013a366004610e20565b61034c565b60045461014c9060ff1681565b60405160ff90911681526020016100e9565b61010561016c366004610df6565b610580565b61011e61017f366004610e5c565b6001600160a01b031660009081526001602052604090205490565b6100dc6106b4565b6101056101b0366004610df6565b6106c1565b6101056101c3366004610df6565b61071c565b61011e6101d6366004610e77565b6001600160a01b03918216600090815260026020908152604080832093909416825291909152205490565b61011e61020f366004610f80565b6107f3565b61011e610222366004610f80565b6109f1565b6003805461023490611049565b80601f016020809104026020016040519081016040528092919081815260200182805461026090611049565b80156102ad5780601f10610282576101008083540402835291602001916102ad565b820191906000526020600020905b81548152906001019060200180831161029057829003601f168201915b505050505081565b60006001600160a01b0383166102e65760405162461bcd60e51b81526004016102dd90611083565b60405180910390fd5b3360008181526002602090815260408083206001600160a01b03881680855290835292819020869055518581529192917f8c5be1e5ebec7d5bd14f71427d1e84f3dd0314c0f7b2291e5b200ac8c7c3b92591015b60405180910390a35060015b92915050565b6001600160a01b0383166000908152600260209081526040808320338452909152812054828110156103c05760405162461bcd60e51b815260206004820152601960248201527f5370656e64657220616c6c6f77616e636520746f6f206c6f770000000000000060448201526064016102dd565b6001600160a01b0384166104295760405162461bcd60e51b815260206004820152602a60248201527f43616e27742073656e6420746f6b656e7320746f20756e696e697469616c697a6044820152696564206164647265737360b01b60648201526084016102dd565b604080518082018252601781527f5370656e6465722062616c616e636520746f6f206c6f770000000000000000006020808301919091526001600160a01b038816600090815260019091529190912054610484918590610bc3565b6001600160a01b0380871660009081526001602052604080822093909355908616815220546104b39084610bfd565b6001600160a01b0385166000908152600160205260409020556000198114610528576001600160a01b03851660009081526002602090815260408083203384529091529020546105039084610c63565b6001600160a01b03861660009081526002602090815260408083203384529091529020555b836001600160a01b0316856001600160a01b03167fddf252ad1be2c89b69c2b068fc378daa952ba7f163c4a11628f55a4df523b3ef8560405161056d91815260200190565b60405180910390a3506001949350505050565b60006001600160a01b0383166105a85760405162461bcd60e51b81526004016102dd90611083565b3360009081526002602090815260408083206001600160a01b0387168452909152902054808311156105fd573360009081526002602090815260408083206001600160a01b0388168452909152812055610650565b3360009081526002602090815260408083206001600160a01b038816845290915290205461062b9084610c63565b3360009081526002602090815260408083206001600160a01b03891684529091529020555b3360008181526002602090815260408083206001600160a01b038916808552908352928190205490519081529192917f8c5be1e5ebec7d5bd14f71427d1e84f3dd0314c0f7b2291e5b200ac8c7c3b925910160405180910390a35060019392505050565b6005805461023490611049565b60006106cd8383610ca5565b9050806103465760405162461bcd60e51b815260206004820152601760248201527f5472616e73666572206469646e2774207375636365656400000000000000000060448201526064016102dd565b60006001600160a01b0383166107445760405162461bcd60e51b81526004016102dd90611083565b3360009081526002602090815260408083206001600160a01b0387168452909152902054806107738185610bfd565b108061078a57506000196107878285610bfd565b10155b156107c55761079c6000196001610c63565b3360009081526002602090815260408083206001600160a01b0389168452909152902055610650565b3360009081526002602090815260408083206001600160a01b038816845290915290205461062b9084610bfd565b6000825184511461085a5760405162461bcd60e51b815260206004820152602b60248201527f416d6f756e74206f6620726563697069656e747320616e642076616c7565732060448201526a0c8dedc4ee840dac2e8c6d60ab1b60648201526084016102dd565b83516064116108a15760405162461bcd60e51b8152602060048201526013602482015272546f6f206d616e7920726563697069656e747360681b60448201526064016102dd565b6000805b85518110156108ec576108da8582815181106108c3576108c36110cc565b602002602001015183610bfd90919063ffffffff16565b91506108e5816110f8565b90506108a5565b506b033b2e3c9fd0803ce8000000811061093e5760405162461bcd60e51b8152602060048201526013602482015272084ead8d640ecc2d8eaca40e8dede40d0d2ced606b1b60448201526064016102dd565b6000805b86518110156109ad57610987878281518110610960576109606110cc565b602002602001015187838151811061097a5761097a6110cc565b6020026020010151610ca5565b9150811561099d5761099a846001610bfd565b93505b6109a6816110f8565b9050610942565b50837f8ed71c3a6fb899bfe96968ade5a4119b380c0d642a775106eb80aa795450777e846040516109e091815260200190565b60405180910390a250509392505050565b60008251845114610a565760405162461bcd60e51b815260206004820152602960248201527f416d6f756e74206f66207370656e6465727320616e642076616c75657320646f6044820152680dc4ee840dac2e8c6d60bb1b60648201526084016102dd565b8351606411610a9b5760405162461bcd60e51b8152602060048201526011602482015270546f6f206d616e79207370656e6465727360781b60448201526064016102dd565b6000805b8551811015610acf57610abd8582815181106108c3576108c36110cc565b9150610ac8816110f8565b9050610a9f565b506b033b2e3c9fd0803ce80000008110610b215760405162461bcd60e51b8152602060048201526013602482015272084ead8d640ecc2d8eaca40e8dede40d0d2ced606b1b60448201526064016102dd565b6000805b8651811015610b9057610b6a878281518110610b4357610b436110cc565b6020026020010151878381518110610b5d57610b5d6110cc565b602002602001015161071c565b91508115610b8057610b7d846001610bfd565b93505b610b89816110f8565b9050610b25565b50837fca78741c6b48402cfa7be577db6559c46abb0f8ba9ce1468cf71297349370d9c846040516109e091815260200190565b60008184841115610be75760405162461bcd60e51b81526004016102dd9190610d8c565b506000610bf48486611111565b95945050505050565b600080610c0a8385611124565b905083811015610c5c5760405162461bcd60e51b815260206004820152601b60248201527f536166654d6174683a206164646974696f6e206f766572666c6f77000000000060448201526064016102dd565b9392505050565b6000610c5c83836040518060400160405280601e81526020017f536166654d6174683a207375627472616374696f6e206f766572666c6f770000815250610bc3565b60006001600160a01b038316610cbd57506000610346565b306001600160a01b03841603610cd557506000610346565b33600090815260016020526040902054821115610cf457506000610346565b33600090815260016020526040902054610d0f908390611111565b33600090815260016020526040808220929092556001600160a01b03851681522054610d3b9083610bfd565b6001600160a01b0384166000818152600160205260409081902092909255905133907fddf252ad1be2c89b69c2b068fc378daa952ba7f163c4a11628f55a4df523b3ef9061033a9086815260200190565b600060208083528351808285015260005b81811015610db957858101830151858201604001528201610d9d565b506000604082860101526040601f19601f8301168501019250505092915050565b80356001600160a01b0381168114610df157600080fd5b919050565b60008060408385031215610e0957600080fd5b610e1283610dda565b946020939093013593505050565b600080600060608486031215610e3557600080fd5b610e3e84610dda565b9250610e4c60208501610dda565b9150604084013590509250925092565b600060208284031215610e6e57600080fd5b610c5c82610dda565b60008060408385031215610e8a57600080fd5b610e9383610dda565b9150610ea160208401610dda565b90509250929050565b634e487b7160e01b600052604160045260246000fd5b604051601f8201601f1916810167ffffffffffffffff81118282101715610ee957610ee9610eaa565b604052919050565b600067ffffffffffffffff821115610f0b57610f0b610eaa565b5060051b60200190565b600082601f830112610f2657600080fd5b81356020610f3b610f3683610ef1565b610ec0565b82815260059290921b84018101918181019086841115610f5a57600080fd5b8286015b84811015610f755780358352918301918301610f5e565b509695505050505050565b600080600060608486031215610f9557600080fd5b833567ffffffffffffffff80821115610fad57600080fd5b818601915086601f830112610fc157600080fd5b81356020610fd1610f3683610ef1565b82815260059290921b8401810191818101908a841115610ff057600080fd5b948201945b838610156110155761100686610dda565b82529482019490820190610ff5565b9750508701359250508082111561102b57600080fd5b5061103886828701610f15565b925050604084013590509250925092565b600181811c9082168061105d57607f821691505b60208210810361107d57634e487b7160e01b600052602260045260246000fd5b50919050565b60208082526029908201527f546f6b656e207370656e64657220697320616e20756e696e697469616c697a6560408201526864206164647265737360b81b606082015260800190565b634e487b7160e01b600052603260045260246000fd5b634e487b7160e01b600052601160045260246000fd5b60006001820161110a5761110a6110e2565b5060010190565b81810381811115610346576103466110e2565b80820180821115610346576103466110e256fea2646970667358221220421b1259a7a7e7036630e00fa8be9422304866236d55a2eb6a716ae0519eb31564736f6c63430008150033",
    "linkReferences": {}
  },
  "methodIdentifiers": {
    "allowance(address,address)": "dd62ed3e",
    "approve(address,uint256)": "095ea7b3",
    "approveBulk(address[],uint256[],uint256)": "e8f71d1b",
    "balanceOf(address)": "70a08231",
    "decimals()": "313ce567",
    "decreaseApproval(address,uint256)": "66188463",
    "increaseApproval(address,uint256)": "d73dd623",
    "name()": "06fdde03",
    "symbol()": "95d89b41",
    "totalSupply()": "18160ddd",
    "transfer(address,uint256)": "a9059cbb",
    "transferBulk(address[],uint256[],uint256)": "e816d8d8",
    "transferFrom(address,address,uint256)": "23b872dd"
  },
  "id": 76
}