{
  "abi": [
    {
      "inputs": [
        {
          "internalType": "bytes32",
          "name": "_hubContractAddress",
          "type": "bytes32"
        },
        {
          "internalType": "uint16",
          "name": "_hubContractChainId",
          "type": "uint16"
        },
        {
          "internalType": "contract IVotes",
          "name": "_token",
          "type": "address"
        },
        {
          "internalType": "uint256",
          "name": "_targetSecondsPerBlock",
          "type": "uint256"
        },
        {
          "internalType": "uint16",
          "name": "_chainId",
          "type": "uint16"
        },
        {
          "internalType": "address",
          "name": "_wormholeRelayerAddress",
          "type": "address"
        }
      ],
      "stateMutability": "nonpayable",
      "type": "constructor"
    },
    {
      "anonymous": false,
      "inputs": [
        {
          "indexed": true,
          "internalType": "address",
          "name": "voter",
          "type": "address"
        },
        {
          "indexed": false,
          "internalType": "uint256",
          "name": "proposalId",
          "type": "uint256"
        },
        {
          "indexed": false,
          "internalType": "uint8",
          "name": "support",
          "type": "uint8"
        },
        {
          "indexed": false,
          "internalType": "uint256",
          "name": "weight",
          "type": "uint256"
        },
        {
          "indexed": false,
          "internalType": "string",
          "name": "reason",
          "type": "string"
        }
      ],
      "name": "VoteCast",
      "type": "event"
    },
    {
      "inputs": [
        {
          "internalType": "uint256",
          "name": "proposalId",
          "type": "uint256"
        },
        {
          "internalType": "uint8",
          "name": "support",
          "type": "uint8"
        }
      ],
      "name": "castVote",
      "outputs": [
        {
          "internalType": "uint256",
          "name": "",
          "type": "uint256"
        }
      ],
      "stateMutability": "nonpayable",
      "type": "function"
    },
    {
      "inputs": [],
      "name": "chainId",
      "outputs": [
        {
          "internalType": "uint16",
          "name": "",
          "type": "uint16"
        }
      ],
      "stateMutability": "view",
      "type": "function"
    },
    {
      "inputs": [
        {
          "internalType": "uint256",
          "name": "proposalId",
          "type": "uint256"
        },
        {
          "internalType": "address",
          "name": "account",
          "type": "address"
        }
      ],
      "name": "hasVoted",
      "outputs": [
        {
          "internalType": "bool",
          "name": "",
          "type": "bool"
        }
      ],
      "stateMutability": "view",
      "type": "function"
    },
    {
      "inputs": [],
      "name": "hubContractAddress",
      "outputs": [
        {
          "internalType": "bytes32",
          "name": "",
          "type": "bytes32"
        }
      ],
      "stateMutability": "view",
      "type": "function"
    },
    {
      "inputs": [],
      "name": "hubContractChainId",
      "outputs": [
        {
          "internalType": "uint16",
          "name": "",
          "type": "uint16"
        }
      ],
      "stateMutability": "view",
      "type": "function"
    },
    {
      "inputs": [
        {
          "internalType": "uint256",
          "name": "proposalId",
          "type": "uint256"
        }
      ],
      "name": "isProposal",
      "outputs": [
        {
          "internalType": "bool",
          "name": "",
          "type": "bool"
        }
      ],
      "stateMutability": "view",
      "type": "function"
    },
    {
      "inputs": [],
      "name": "nonce",
      "outputs": [
        {
          "internalType": "uint16",
          "name": "",
          "type": "uint16"
        }
      ],
      "stateMutability": "view",
      "type": "function"
    },
    {
      "inputs": [
        {
          "internalType": "bytes32",
          "name": "",
          "type": "bytes32"
        }
      ],
      "name": "processedMessages",
      "outputs": [
        {
          "internalType": "bool",
          "name": "",
          "type": "bool"
        }
      ],
      "stateMutability": "view",
      "type": "function"
    },
    {
      "inputs": [
        {
          "internalType": "uint256",
          "name": "",
          "type": "uint256"
        }
      ],
      "name": "proposalVotes",
      "outputs": [
        {
          "internalType": "uint256",
          "name": "againstVotes",
          "type": "uint256"
        },
        {
          "internalType": "uint256",
          "name": "forVotes",
          "type": "uint256"
        },
        {
          "internalType": "uint256",
          "name": "abstainVotes",
          "type": "uint256"
        }
      ],
      "stateMutability": "view",
      "type": "function"
    },
    {
      "inputs": [
        {
          "internalType": "uint256",
          "name": "",
          "type": "uint256"
        }
      ],
      "name": "proposals",
      "outputs": [
        {
          "internalType": "uint256",
          "name": "localVoteStart",
          "type": "uint256"
        },
        {
          "internalType": "bool",
          "name": "voteFinished",
          "type": "bool"
        }
      ],
      "stateMutability": "view",
      "type": "function"
    },
    {
      "inputs": [
        {
          "internalType": "bytes",
          "name": "payload",
          "type": "bytes"
        },
        {
          "internalType": "bytes[]",
          "name": "additionalVaas",
          "type": "bytes[]"
        },
        {
          "internalType": "bytes32",
          "name": "sourceAddress",
          "type": "bytes32"
        },
        {
          "internalType": "uint16",
          "name": "sourceChain",
          "type": "uint16"
        },
        {
          "internalType": "bytes32",
          "name": "deliveryHash",
          "type": "bytes32"
        }
      ],
      "name": "receiveWormholeMessages",
      "outputs": [],
      "stateMutability": "payable",
      "type": "function"
    },
    {
      "inputs": [],
      "name": "targetSecondsPerBlock",
      "outputs": [
        {
          "internalType": "uint256",
          "name": "",
          "type": "uint256"
        }
      ],
      "stateMutability": "view",
      "type": "function"
    },
    {
      "inputs": [],
      "name": "token",
      "outputs": [
        {
          "internalType": "contract IVotes",
          "name": "",
          "type": "address"
        }
      ],
      "stateMutability": "view",
      "type": "function"
    },
    {
      "inputs": [],
      "name": "wormholeRelayer",
      "outputs": [
        {
          "internalType": "contract IWormholeRelayer",
          "name": "",
          "type": "address"
        }
      ],
      "stateMutability": "view",
      "type": "function"
    }
  ],
  "bytecode": {
    "object": "0x6101006040526001805463ffff0000191690553480156200001f57600080fd5b5060405162001330380380620013308339810160408190526200004291620000b1565b6001600160a01b0393841660805260a09290925261ffff90811660e052911660c0526000929092556001805461ffff19169190921617905562000127565b805161ffff811681146200009357600080fd5b919050565b6001600160a01b0381168114620000ae57600080fd5b50565b60008060008060008060c08789031215620000cb57600080fd5b86519550620000dd6020880162000080565b94506040870151620000ef8162000098565b60608801519094509250620001076080880162000080565b915060a0870151620001198162000098565b809150509295509295509295565b60805160a05160c05160e0516111ac62000184600039600061027301526000818161030c015281816103e30152818161079a0152610a580152600081816101450152610621015260008181610387015261094f01526111ac6000f3fe6080604052600436106100dd5760003560e01c80639a8a05921161007f578063d8c71a9211610059578063d8c71a92146102e4578063da25b725146102fa578063e117199914610346578063fc0c546a1461037557600080fd5b80639a8a059214610261578063affed0e0146102a8578063b0f6b697146102c957600080fd5b8063529dca32116100bb578063529dca32146101a5578063544ffc9c146101ba578063567813881461021157806388ba16ab1461023157600080fd5b8063013cf08b146100e257806332d0c46d146101335780634385963214610175575b600080fd5b3480156100ee57600080fd5b506101196100fd366004610c49565b6002602052600090815260409020805460019091015460ff1682565b604080519283529015156020830152015b60405180910390f35b34801561013f57600080fd5b506101677f000000000000000000000000000000000000000000000000000000000000000081565b60405190815260200161012a565b34801561018157600080fd5b50610195610190366004610c7a565b6103a9565b604051901515815260200161012a565b6101b86101b3366004610d8f565b6103d8565b005b3480156101c657600080fd5b506101f66101d5366004610c49565b60036020526000908152604090208054600182015460029092015490919083565b6040805193845260208401929092529082015260600161012a565b34801561021d57600080fd5b5061016761022c366004610e98565b61084f565b34801561023d57600080fd5b5061019561024c366004610c49565b60046020526000908152604090205460ff1681565b34801561026d57600080fd5b506102957f000000000000000000000000000000000000000000000000000000000000000081565b60405161ffff909116815260200161012a565b3480156102b457600080fd5b506001546102959062010000900461ffff1681565b3480156102d557600080fd5b506001546102959061ffff1681565b3480156102f057600080fd5b5061016760005481565b34801561030657600080fd5b5061032e7f000000000000000000000000000000000000000000000000000000000000000081565b6040516001600160a01b03909116815260200161012a565b34801561035257600080fd5b50610195610361366004610c49565b600090815260026020526040902054151590565b34801561038157600080fd5b5061032e7f000000000000000000000000000000000000000000000000000000000000000081565b60008281526003602081815260408084206001600160a01b0386168552909201905290205460ff165b92915050565b336001600160a01b037f0000000000000000000000000000000000000000000000000000000000000000161461044c5760405162461bcd60e51b815260206004820152601460248201527313db9b1e481c995b185e595c88185b1b1bddd95960621b60448201526064015b60405180910390fd5b82600054148015610465575060015461ffff8381169116145b6104ce5760405162461bcd60e51b815260206004820152603460248201527f4f6e6c79206d657373616765732066726f6d207468652068756220636f6e74726044820152736163742063616e2062652072656365697665642160601b6064820152608401610443565b60008181526004602052604090205460ff161561052d5760405162461bcd60e51b815260206004820152601960248201527f4d65737361676520616c72656164792070726f636573736564000000000000006044820152606401610443565b600080868060200190518101906105449190610ee7565b935050509150306001600160a01b0316826001600160a01b03161461056857600080fd5b60008381526004602090815260408220805460ff191660011790558201519061ffff821690036106bb57600080838060200190518101906105a99190610f99565b92509250506105c682600090815260026020526040902054151590565b156106135760405162461bcd60e51b815260206004820152601b60248201527f50726f706f73616c204944206d75737420626520756e697175652e00000000006044820152606401610443565b6000428210156106795760007f000000000000000000000000000000000000000000000000000000000000000061064a8442610fe6565b6106549190610ff9565b90504381101561066f576106688143610fe6565b9150610673565b4391505b5061067c565b50435b6040805180820182529182526000602080840182815295825260029052209051815591516001909201805460ff19169215159290921790915550610845565b8061ffff16600103610845576000828060200190518101906106dd919061101b565b60008181526003602090815260408083206001808201548254600284015485519687018890528686018990526060870192909252608086015260a0808601919091528351808603909101815260c085019093528454905495975090955090936107539261ffff909116903390869060e001611075565b60408051601f198184030181529190526001549091506000906107799061ffff16610a2c565b600154600080546040516347f66e8160e11b81529394506001600160a01b037f00000000000000000000000000000000000000000000000000000000000000001693638fecdd029386936107de9361ffff909216928991906207a120906004016110b3565b60206040518083038185885af11580156107fc573d6000803e3d6000fd5b50505050506040513d601f19601f8201168201806040525081019061082191906110f5565b505050600092835250506002602052604090206001908101805460ff191690911790555b5050505050505050565b6000828152600260205260408120600181015460ff16156108c65760405162461bcd60e51b815260206004820152602b60248201527f44414f53706f6b65436f6e74726163743a20766f7465206e6f7420637572726560448201526a6e746c792061637469766560a81b6064820152608401610443565b60008481526002602052604090205461092d5760405162461bcd60e51b8152602060048201526024808201527f44414f53706f6b65436f6e74726163743a206e6f742061207374617274656420604482015263766f746560e01b6064820152608401610443565b8054604051630748d63560e31b815233600482015260248101919091526000907f00000000000000000000000000000000000000000000000000000000000000006001600160a01b031690633a46b1a890604401602060405180830381865afa15801561099e573d6000803e3d6000fd5b505050506040513d601f19601f820116820180604052508101906109c29190611126565b90506109d085338684610ad1565b6040805186815260ff8616602082015290810182905260806060820181905260009082015233907fb8e138887d0aa13bab447e82de9d5c1777041ecd21ca36ba824ff1e6c07ddda49060a00160405180910390a2949350505050565b60405163c23ee3c360e01b815261ffff821660048201526000602482018190526207a1206044830152907f00000000000000000000000000000000000000000000000000000000000000006001600160a01b03169063c23ee3c3906064016040805180830381865afa158015610aa6573d6000803e3d6000fd5b505050506040513d601f19601f82011682018060405250810190610aca919061113f565b5092915050565b60008481526003602081815260408084206001600160a01b03881685529283019091529091205460ff1615610b545760405162461bcd60e51b815260206004820152602360248201527f44414f53706f6b65436f6e74726163743a20766f746520616c72656164792063604482015262185cdd60ea1b6064820152608401610443565b6001600160a01b03841660009081526003820160205260409020805460ff1916600117905560ff8316610ba05781816000016000828254610b959190611163565b90915550610c429050565b60001960ff841601610bc05781816001016000828254610b959190611163565b60011960ff841601610be05781816002016000828254610b959190611163565b60405162461bcd60e51b815260206004820152603160248201527f44414f53706f6b65436f6e74726163743a20696e76616c69642076616c756520604482015270666f7220656e756d20566f74655479706560781b6064820152608401610443565b5050505050565b600060208284031215610c5b57600080fd5b5035919050565b6001600160a01b0381168114610c7757600080fd5b50565b60008060408385031215610c8d57600080fd5b823591506020830135610c9f81610c62565b809150509250929050565b634e487b7160e01b600052604160045260246000fd5b604051601f8201601f1916810167ffffffffffffffff81118282101715610ce957610ce9610caa565b604052919050565b600067ffffffffffffffff821115610d0b57610d0b610caa565b50601f01601f191660200190565b600082601f830112610d2a57600080fd5b8135610d3d610d3882610cf1565b610cc0565b818152846020838601011115610d5257600080fd5b816020850160208301376000918101602001919091529392505050565b61ffff81168114610c7757600080fd5b8035610d8a81610d6f565b919050565b600080600080600060a08688031215610da757600080fd5b853567ffffffffffffffff80821115610dbf57600080fd5b610dcb89838a01610d19565b9650602091508188013581811115610de257600080fd5b8801601f81018a13610df357600080fd5b803582811115610e0557610e05610caa565b8060051b610e14858201610cc0565b918252828101850191858101908d841115610e2e57600080fd5b86850192505b83831015610e6a57823586811115610e4c5760008081fd5b610e5a8f8983890101610d19565b8352509186019190860190610e34565b809a505050505050505060408601359250610e8760608701610d7f565b949793965091946080013592915050565b60008060408385031215610eab57600080fd5b82359150602083013560ff81168114610c9f57600080fd5b60005b83811015610ede578181015183820152602001610ec6565b50506000910152565b60008060008060808587031215610efd57600080fd5b8451610f0881610c62565b6020860151909450610f1981610d6f565b6040860151909350610f2a81610c62565b606086015190925067ffffffffffffffff811115610f4757600080fd5b8501601f81018713610f5857600080fd5b8051610f66610d3882610cf1565b818152886020838501011115610f7b57600080fd5b610f8c826020830160208601610ec3565b9598949750929550505050565b600080600060608486031215610fae57600080fd5b8351610fb981610d6f565b602085015160409095015190969495509392505050565b634e487b7160e01b600052601160045260246000fd5b818103818111156103d2576103d2610fd0565b60008261101657634e487b7160e01b600052601260045260246000fd5b500490565b6000806040838503121561102e57600080fd5b825161103981610d6f565b6020939093015192949293505050565b60008151808452611061816020860160208601610ec3565b601f01601f19169290920160200192915050565b84815261ffff841660208201526001600160a01b03831660408201526080606082018190526000906110a990830184611049565b9695505050505050565b61ffff861681526001600160a01b038516602082015260a0604082018190526000906110e190830186611049565b606083019490945250608001529392505050565b60006020828403121561110757600080fd5b815167ffffffffffffffff8116811461111f57600080fd5b9392505050565b60006020828403121561113857600080fd5b5051919050565b6000806040838503121561115257600080fd5b505080516020909101519092909150565b808201808211156103d2576103d2610fd056fea26469706673582212203c5edeb7ae126efe6ff835b3e0c00a2e7563610f34c621fcc373f41f0fb7be6c64736f6c63430008150033",
    "linkReferences": {}
  },
  "methodIdentifiers": {
    "castVote(uint256,uint8)": "56781388",
    "chainId()": "9a8a0592",
    "hasVoted(uint256,address)": "43859632",
    "hubContractAddress()": "d8c71a92",
    "hubContractChainId()": "b0f6b697",
    "isProposal(uint256)": "e1171999",
    "nonce()": "affed0e0",
    "processedMessages(bytes32)": "88ba16ab",
    "proposalVotes(uint256)": "544ffc9c",
    "proposals(uint256)": "013cf08b",
    "receiveWormholeMessages(bytes,bytes[],bytes32,uint16,bytes32)": "529dca32",
    "targetSecondsPerBlock()": "32d0c46d",
    "token()": "fc0c546a",
    "wormholeRelayer()": "da25b725"
  },
  "id": 74
}